:100000000C94C1000C94E9000C94E9000C94E900F4
:100010000C94E9000C94E9000C94E9000C94E900BC
:100020000C94E9000C94E9000C94E9000C94C20BC8
:100030000C94E9000C94E9000C94E9000C94E9009C
:100040000C94590A0C94E9000C94270A0C94010AA8
:100050000C94E9000C94E9000C94E9000C94E9007C
:100060000C94A30A0C94E90007634236B79BD8A707
:100070001A39685618AEBAAB558C1D3CB7CC5763CD
:10008000BD6DEDFD753EF6177231BF000000803F7B
:1000900008000000BE922449123EABAAAA2ABECD97
:1000A000CCCC4C3E00000080BEABAAAAAA3E000009
:1000B0000000BF000000803F000000000008417801
:1000C000D3BB4387D1133D190E3CC3BD4282AD2B38
:1000D0003E68EC8276BED98FE1A93E4C80EFFFBE30
:1000E00001C4FF7F3F00000000004E414E494E49D1
:1000F0005459494E46CDCCCC3D0AD7233C17B7D1F5
:100100003877CC2B329595E6241FB14F0A0000209A
:10011000410000C84200401C4620BCBE4CCA1B0E19
:100120005AAEC59D7400000000240027002A00007C
:10013000000000250028002B00000000080002013C
:1001400000000304070000000000000000000000A1
:10015000002300260029000404040404040404020B
:100160000202020202030303030303010204081054
:100170002040800102040810200102040810200021
:10018000C30C11241FBECFEFD8E0DEBFCDBF11E0FE
:10019000A0E0B1E0E6E6FAE302C005900D92A435D6
:1001A000B107D9F724E0A4E5B1E001C01D92A7335F
:1001B000B207E1F710E0C1ECD0E004C02197FE01E6
:1001C0000E94391BC03CD107C9F70E94880D0C94CE
:1001D000311D0C9400008091AE019091AF01891BFC
:1001E000990B089508950895AF92BF92CF92DF9230
:1001F000EF92FF920F931F93CF93DF936C017B01DC
:100200008B01040F151FEB015E01AE18BF08C0176C
:10021000D10759F06991D601ED91FC910190F081DF
:10022000E02DC6010995892B79F7C501DF91CF91A2
:100230001F910F91FF90EF90DF90CF90BF90AF9004
:100240000895FC01538D448D252F30E0842F90E0DC
:10025000821B930B541710F0CF96089501970895C1
:10026000FC01918D828D981761F0A28DAE0FBF2F8A
:10027000B11D5D968C91928D9F5F9F73928F90E0E0
:1002800008958FEF9FEF0895FC01918D828D98174F
:1002900031F0828DE80FF11D858D90E008958FEF8C
:1002A0009FEF0895FC01918D228D892F90E0805C55
:1002B0009F4F821B91098F739927089589EE92E0D1
:1002C0000E94520121E0892B09F420E0822F089539
:1002D00080E090E0892B29F00E945E0181110C944E
:1002E00000000895FC01A48DA80FB92FB11DA35AD9
:1002F000BF4F2C91848D90E001968F739927848F46
:10030000A689B7892C93A089B1898C918370806468
:100310008C93938D848D981306C00288F389E02D09
:1003200080818F7D80830895EF92FF920F931F93BA
:10033000CF93DF93EC0181E0888F9B8D8C8D981398
:100340001AC0E889F989808185FF15C09FB7F894A4
:10035000EE89FF896083E889F989808183708064F0
:1003600080839FBF81E090E0DF91CF911F910F913B
:10037000FF90EF900895F62E0B8D10E00F5F1F4F4A
:100380000F731127E02E8C8D8E110CC00FB607FC59
:10039000FACFE889F989808185FFF5CFCE010E94E7
:1003A0007201F1CFEB8DEC0FFD2FF11DE35AFF4FE2
:1003B000F0829FB7F8940B8FEA89FB898081806275
:1003C000CFCF682F89EE92E00C949401CF93DF9306
:1003D000EC01888D8823B9F0AA89BB89E889F9895D
:1003E0008C9185FD03C0808186FD0DC00FB607FC92
:1003F000F7CF8C9185FFF2CF808185FFEDCFCE01C5
:100400000E947201E9CFDF91CF910895833081F08E
:1004100028F4813099F08230A9F008958730A9F04E
:100420008830C9F08430B1F4809180008F7D03C0A2
:10043000809180008F7780938000089584B58F77B6
:1004400084BD089584B58F7DFBCF8091B0008F77F8
:100450008093B00008958091B0008F7DF9CF1F93F5
:10046000CF93DF93282F30E0F901E75CFE4F8491B2
:10047000F901E559FE4FD491F901E95AFE4FC491B3
:10048000CC23A9F0162F81110E940602EC2FF0E078
:10049000EE0FFF1FE15DFE4FA591B4918FB7F89469
:1004A000EC91111108C0D095DE23DC938FBFDF9152
:1004B000CF911F910895DE2BF8CFCF93DF9390E07B
:1004C000FC01E559FE4F2491895A9E4FFC0184910D
:1004D0008823C9F090E0880F991FFC01EB5DFE4F67
:1004E000A591B491FC01E15DFE4FC591D4916111DC
:1004F0000DC09FB7F8948C91209582238C938881AE
:10050000282328839FBFDF91CF910895623051F453
:100510009FB7F8943C91822F809583238C93E88138
:100520002E2BEFCF8FB7F894EC912E2B2C938FBFFF
:10053000EACF3FB7F89480919A0190919B01A091E6
:100540009C01B0919D0126B5A89B05C02F3F19F0D5
:100550000196A11DB11D3FBFBA2FA92F982F882743
:10056000BC01CD01620F711D811D911D42E0660F1E
:10057000771F881F991F4A95D1F708958F929F92F0
:10058000AF92BF92CF92DF92EF92FF926B017C010C
:100590000E9499024B015C01C114D104E104F104F1
:1005A000B9F00E949902681979098A099B09683E85
:1005B00073408105910580F321E0C21AD108E1085A
:1005C000F10888EE880E83E0981EA11CB11CE4CFD0
:1005D000FF90EF90DF90CF90BF90AF909F908F9063
:1005E0000895089520917601260F3327331F213275
:1005F0003105ECF42091F601FC0190E080E024301C
:1006000069F082E00895A09176012191AC014A5AE7
:100610005E4FA40FB52FB11D2C930196861798F34A
:1006200080917601680F6093760180E0089581E003
:1006300008951092F60181E08093F5011092D001A7
:1006400061E082E10E942F0261E083E10E942F02BB
:10065000E9EBF0E080818E7F808380818D7F8083D5
:1006600088E48093B80085E48093BC000895CF931C
:10067000DF9391E0909355018823B9F0C091B800C1
:10068000D091BA008091BC008A7B8093BC0060E06E
:1006900082E10E942F0260E083E10E942F020E940B
:1006A0001903D093BA00C093B800DF91CF91089599
:1006B000CF92DF92EF92FF920F931F93CF93DF932E
:1006C000D0911F0281E0D13208F09CC0C0911E027F
:1006D0000E9499026B017C018091F60181116CC02E
:1006E00082E08093F60181E08093F5018FEF8093A3
:1006F000F4011092F301D093F201AEEFB1E0E2ED1C
:10070000F1E080E0D8138DC01092D1018091D10129
:10071000CC0FC82BC093D1018091D001813009F05A
:1007200084C01092D0010E9499026B017C018091DB
:10073000D1018093BB008091F8019091F901A091C3
:10074000FA01B091FB01892B8A2B8B2BA1F00E941F
:1007500099020091F8011091F9012091FA0130916C
:10076000FB016C197D098E099F09061717072807D9
:10077000390708F442C08091BC0083FDD8CF85ECD6
:100780008093BC000E9499026B017C018091F6016C
:10079000823009F44CC08091F4018F3F09F469C0A4
:1007A0008091F401803209F466C08091F4018033B5
:1007B00009F463C084E026C08091F8019091F901AA
:1007C000A091FA01B091FB01892B8A2B8B2B09F4A4
:1007D00083CF0E9499020091F8011091F9012091B4
:1007E000FA013091FB016C197D098E099F090617EA
:1007F00017072807390708F06FCF8091F7010E948B
:10080000370385E01092FD0110921F021092FC0147
:10081000DF91CF911F910F91FF90EF90DF90CF90DC
:1008200008959D9191938F5F6DCF85EEA9CF8091B3
:10083000F8019091F901A091FA01B091FB01892B87
:100840008A2B8B2B09F4A2CF0E9499020091F80108
:100850001091F9012091FA013091FB016C197D0989
:100860008E099F09061717072807390708F08ECF4A
:10087000C4CF80E0C7CF82E0C5CF83E0C3CFCF92A3
:10088000DF92EF92FF920F931F93CF93DF93D82FB6
:10089000C62F613208F098C00E9499026B017C015A
:1008A0008091F60181116BC081E08093F601809305
:1008B000F5019FEF9093F4011092F3019C0F909338
:1008C000F2018093D1018091D101DD0FD82BD0931B
:1008D000D1018091D001813009F078C01092D0010F
:1008E0000E9499026B017C018091D1018093BB0031
:1008F0008091F8019091F901A091FA01B091FB016A
:10090000892B8A2B8B2BA1F00E9499020091F80170
:100910001091F9012091FA013091FB016C197D09C8
:100920008E099F09061717072807390708F448C0DA
:100930008091BC0083FDD8CF85EC8093BC000E94E1
:1009400099026B017C018091F601813009F440C06D
:100950008091F3018C1710F4C091F301E2EDF1E006
:10096000A0EBB1E080E08C1355C08C2FDF91CF91CC
:100970001F910F91FF90EF90DF90CF90089580919D
:10098000F8019091F901A091FA01B091FB01892B36
:100990008A2B8B2B09F484CF0E9499020091F801D5
:1009A0001091F9012091FA013091FB016C197D0938
:1009B0008E099F09061717072807390708F070CF17
:1009C0008091F7010E943703C0E0CFCF85EEB5CF0D
:1009D0008091F8019091F901A091FA01B091FB0189
:1009E000892B8A2B8B2B09F4AECF0E9499020091A0
:1009F000F8011091F9012091FA013091FB016C1975
:100A00007D098E099F09061717072807390708F07F
:100A10009ACFD6CF91919D938F5FA5CF0895E09106
:100A2000AF018091AE01E81730F4F0E0E055FE4FE1
:100A3000808190E008958FEF9FEF08959091AF012E
:100A40008091AE012FEF3FEF981748F4E92FF0E0C7
:100A5000E055FE4F208130E09F5F9093AF01C901C8
:100A60000895CF92DF92EF92FF920F931F93CF934F
:100A7000DF937C01CB018A012091FC01222389F0C4
:100A8000EB016B01C40ED51ECC15DD0569F0699133
:100A9000D701ED91FC910190F081E02DC7010995FE
:100AA000F3CF642F0E94F202C801DF91CF911F9112
:100AB0000F91FF90EF90DF90CF90089521E0209369
:100AC000FC0127E720931E021092FD0110921F02E5
:100AD00042E050E0BC0186E893E00E9431050E94AC
:100AE0005803982F8093010481E0911180E00895CC
:100AF000CF93DF931F92CDB7DEB769832091FC01BE
:100B00002223F9F020911F02203258F021E030E03A
:100B1000FC013383228390E080E00F90DF91CF913E
:100B200008958091FD01E82FF0E0E250FE4F998199
:100B300090838F5F8093FD0180931F0281E090E09E
:100B4000ECCF61E0CE0101960E94F202F7CFCF9385
:100B5000C82F81E08093FC0183E580931E021092F0
:100B6000FD0110921F026DE286E893E00E94780575
:100B70006C2F86E893E00E947805CF910C9458037F
:100B800090E080E008958DEF90E00E94E1018EEF0B
:100B900090E00C94E1010F931F93CF93DF93D0E08B
:100BA000C0E0FE01E75CFE4F8491FE01E559FE4F77
:100BB0000491FE01E95AFE4F1491112309F448C033
:100BC00081110E940602E12FF0E0EE0FFF1FE35BB0
:100BD000FE4FA591B491EC91E02381E090E009F4FF
:100BE00080E00E94E1012196CE30D105D1F68EEF52
:100BF00090E00E94E101C0E08C2F806480937C0033
:100C000080917A00806480937A0080917A0086FDDA
:100C1000FCCF8091780060917900762F682F072EA5
:100C2000000C880B990B0E94CF1624E13EEA43EAA0
:100C300050E40E94F6180E946819CB010E94E1015D
:100C4000CF5FC630C9F6DF91CF911F910F91089504
:100C500080E090E0C6CF81E090E00E94E10181E079
:100C600090E00E94E10186E190E00C94E101FB013B
:100C700001900020E9F73197AF01461B570BDC01CB
:100C8000ED91FC910280F381E02D09948F929F9267
:100C9000AF92BF920F931F93CF93DF93CDB7DEB781
:100CA000A1970FB6F894DEBF0FBECDBF19A2423098
:100CB00008F44AE08E010F5D1F4F842E912CB12C59
:100CC000A12CA50194010E945818E62FB901CA0170
:100CD000EA3004F5E05DD801EE938D01232B242B3F
:100CE000252B79F790E080E0109729F0BD0189EE7F
:100CF00092E00E943706A1960FB6F894DEBF0FBEB1
:100D0000CDBFDF91CF911F910F91BF90AF909F907A
:100D10008F900895E95CDFCFCF92DF92EF92FF9240
:100D2000CF93DF9361E170E090E080E00E94641C6B
:100D3000EC0130E020E0009739F0188266E371E0C2
:100D40000E942A1D20E130E0A5E2B2E090E080E0C0
:100D500070E060E04D915D914F3F5105C1F04E3F15
:100D6000510519F46F5F7F4FF5CF6115710591F74C
:100D70008217930728F4FE01E80FF91F209721F44A
:100D800010922002E0E2F2E040830196E3CF821766
:100D9000930720F48C0F9D1F209721F410922002BE
:100DA00080E292E0FC011082C12CD12C76012097C8
:100DB00041F0CE010E9453156B017C01CE010E94CF
:100DC000DB1BC701B601DF91CF91FF90EF90DF9061
:100DD000CF900895CF92DF92EF92FF92CF93DF935F
:100DE0006C01990FEE08FF08F7FE19C06DE289EE5D
:100DF00092E00E949401EC0166277727CB016C19E1
:100E00007D098E099F094AE00E9446068C0F9D1FAE
:100E1000DF91CF91FF90EF90DF90CF9008954AE05F
:100E2000C701B601DF91CF91FF90EF90DF90CF9097
:100E30000C944606EF92FF920F931F93CF93DF938C
:100E40008C01F62E81E08093FC0187E780931E02DF
:100E50001092FD0110921F02F801608186E893E074
:100E60000E9478050E94580380930104811124C0D8
:100E7000CF2D0F2C000CDD0B6F2D87E70E943F0458
:100E80001092AF018093AE0190E0C817D907E9F73F
:100E9000E02EC02FD12F86E893E00E941E05899393
:100EA0008C2F8E198F15BCF381E0DF91CF911F91AC
:100EB0000F91FF90EF90089580E0F7CF0F931F936D
:100EC000CF93DF9300D0CDB7DEB78B01898362E08B
:100ED000CE0101960E941A07882381F089819A81A8
:100EE000982789279827F8019183808381E00F90C4
:100EF0000F90DF91CF911F910F910895F80111820A
:100F00001082F5CF0F931F93CF93DF9300D0CDB70F
:100F1000DEB78B01898362E0CE0101960E941A0739
:100F2000882381F089819A81982789279827F80159
:100F30009183808381E00F900F90DF91CF911F917B
:100F40000F910895F80111821082F5CF4F925F92B0
:100F50006F927F928F929F92AF92BF92CF92DF92C9
:100F6000EF92FF920F931F93CF936B017C01742E2E
:100F7000AC019B010E94F31967E471E0811126C066
:100F800046015701E894B7F82FEF3FEF4FE75FE7CF
:100F9000C501B4010E94F31981110CC02FEF3FEF7E
:100FA0004FE75FE7C501B4010E94C8166BE471E02A
:100FB000181664F02FEF3FEF4FE75FE4C701B6016B
:100FC0000E949E191816ACF46FE471E089EE92E06D
:100FD000CF911F910F91FF90EF90DF90CF90BF9036
:100FE000AF909F908F907F906F905F904F900C94F8
:100FF00037062FEF3FEF4FE75FECC701B6010E94C6
:10100000C81687FDE1CF20E030E0A901C701B60195
:101010000E94C81610E000E087FF0AC06DE289EE6A
:1010200092E00E9494018C01F7FAF094F7F8F094A2
:10103000C0E060E070E080E09FE37C1641F020E0DB
:1010400030E040E251E40E94F618CF5FF6CFA701EE
:1010500096010E948A182B013C010E946F194B01D6
:101060005C014AE00E9446067C01E00EF11ECC23A2
:10107000C1F1C501B4010E94CD169B01AC01C301B1
:10108000B2010E9489184B015C016EE289EE92E088
:101090000E949401E80EF91EC15018F120E030E0E2
:1010A00040E251E4C501B4010E942E172B013C011E
:1010B0000E946F194B01B12CA12C4AE0C501B4016B
:1010C0000E944606E80EF91EC501B4010E94CD1625
:1010D0009B01AC01C301B2010E9489184B015C0164
:1010E000DBCFC701CF911F910F91FF90EF90DF9061
:1010F000CF90BF90AF909F908F907F906F905F90B8
:101100004F900895CF93DF93EC0160E08E810E94B1
:101110002F0261E08E810E942F0260E08E810E948A
:101120002F028BE891E00197F1F7DF91CF910895BD
:10113000CF92DF92EF92FF920F931F93CF93DF93A3
:101140006C017C0187E0E80EF11CD0E0C0E0062FC6
:1011500010E0B8010C2E02C0759567950A94E2F76D
:101160006170F70181917F010E942F022196C430A6
:10117000D10579F7C601DF91CF911F910F91FF90B3
:10118000EF90DF90CF900C948208CF92DF92EF9295
:10119000FF920F931F93CF93DF93EC01F62E642FF2
:1011A0008C810E942F028D818F3F19F060E00E9498
:1011B0002F020F2D10E08F8584FF25C06E0187E080
:1011C000C80ED11CF12CE12CB8010E2C02C0759573
:1011D00067950A94E2F76170F60181916F010E94B0
:1011E0002F02FFEFEF1AFF0A88E0E816F10461F71B
:1011F000CE01DF91CF911F910F91FF90EF90DF9083
:10120000CF900C948208B80184E0759567958A9513
:10121000E1F7CE010E9498086F2DCE01DF91CF91AA
:101220001F910F91FF90EF90DF90CF900C94980852
:1012300040E0682F82E094E00C94C508CF93DF93E0
:10124000623028F09091110498609093110460939B
:1012500015041092160490E49093170480931804D8
:10126000805C8093190461E0809106040E945D0215
:10127000809107048F3F19F061E00E945D0261E0F8
:10128000809108040E945D02C2E0D4E09E012250D9
:1012900034408091110484FD0BC084E090E02196DD
:1012A0002817390744F461E08E810E945D02EECF79
:1012B00088E090E0F4CF8BE39DE00197F1F760E0E8
:1012C000809106040E942F0260E0809108040E9431
:1012D0002F02809107048F3F19F060E00E942F02D7
:1012E0008091110484FD39C063E082E094E00E94A3
:1012F0009808CBE4D6E4CE010197F1F763E082E0F1
:1013000094E00E9498082197F1F763E082E094E06E
:101310000E94980883E592E00197F1F762E082E08D
:1013200094E00E9498088091110480620E9418093C
:1013300084E0809312048CE00E94180981E00E94EE
:1013400018098BE39FE10197F1F782E08093130482
:1013500086E0DF91CF910C94180980620E941809F1
:101360008BE496E40197F1F78091110480620E946A
:10137000180983E592E00197F1F7809111048062EA
:101380000E941809D0CF41E00E94C50881E090E09A
:10139000089585ED8093BC008091F8019091F9014A
:1013A000A091FA01B091FB010796A11DB11D23E0A8
:1013B000B695A795979587952A95D1F72091BC006A
:1013C00024FD03C01092F60108954091F801509158
:1013D000F9016091FA017091FB01452B462B472BD7
:1013E00069F30097A105B10541F025E32A95F1F7CE
:1013F00000000197A109B109E1CF8091F7010C9498
:1014000037031F920F920FB60F9211242F933F9321
:101410004F935F936F937F938F939F93AF93BF93FC
:10142000EF93FF9389EE92E00E947201FF91EF919A
:10143000BF91AF919F918F917F916F915F914F91EC
:101440003F912F910F900FBE0F901F9018951F92F4
:101450000F920FB60F9211242F938F939F93EF93B8
:10146000FF93E091F902F091FA028081E091FF028E
:10147000F091000382FD1BC09081809102038F5F79
:101480008F7320910303821741F0E0910203F0E093
:10149000E751FD4F958F80930203FF91EF919F914C
:1014A0008F912F910F900FBE0F901F9018958081F4
:1014B000F4CF1F920F920FB60F9211242F933F93E8
:1014C0008F939F93AF93BF9380919E0190919F01C3
:1014D000A091A001B091A1013091990123E0230FC7
:1014E0002D3758F50196A11DB11D209399018093C8
:1014F0009E0190939F01A093A001B093A1018091C0
:101500009A0190919B01A0919C01B0919D0101963F
:10151000A11DB11D80939A0190939B01A0939C0102
:10152000B0939D01BF91AF919F918F913F912F916A
:101530000F900FBE0F901F90189526E8230F02966C
:10154000A11DB11DD2CF1F920F920FB60F92112481
:101550002F933F934F935F936F937F938F939F93BB
:10156000AF93BF93EF93FF938091B900887F80364C
:1015700009F44AC0F0F5883209F4A7C018F58031A3
:1015800009F49BC0B8F4882309F4F9C0883009F441
:1015900094C0FF91EF91BF91AF919F918F917F91F7
:1015A0006F915F914F913F912F910F900FBE0F90D0
:1015B0001F901895883109F488C0803251F78093C4
:1015C000F40114C0803409F49DC040F48033B9F3B1
:1015D0008833F9F68093F40185ECB0C0803509F4C6
:1015E00085C0883509F496C0883499F60E94C909E7
:1015F000D0CF883909F48CC038F5883729F050F4F9
:10160000883611F0803729F683E08093F601109236
:10161000980157C0883809F47BC0803919F08038A8
:1016200009F0B7CF80919801803208F071C0E09145
:10163000980181E08E0F809398018091BB00F0E0CB
:10164000E858FE4F80833DC0803B39F0E0F4803A9B
:1016500009F479C0883A09F09CCF84E08093F601C0
:101660001092770110927601E091A401F091A5010A
:1016700009958091760181110FC081E080937601F8
:101680001092560109C0803C09F4A6CF883C09F4A9
:10169000A3CF883B09F07DCFE091770181E08E0FE9
:1016A00080937701F0E0EA5AFE4F80818093BB007F
:1016B000909177018091760129C08091D10180932A
:1016C000BB0085EC8093BC0064CF9091F3018091C6
:1016D000F201981758F5E091F30181E08E0F8093A5
:1016E000F301F0E0EE52FE4F8081E9CFE091F3018B
:1016F00081E08E0F8093F3018091BB00F0E0EE5209
:10170000FE4F80839091F3018091F2019817C8F207
:1017100085E8D8CFE091F30181E08E0F8093F3014B
:101720008091BB00F0E0EE52FE4F80838091F50186
:1017300081115CCF81E08093D00184EA8093BC006A
:101740001092F60126CF85EC8093BC001092F60132
:1017500080919801803230F4E0919801F0E0E858EF
:10176000FE4F10826091980170E0E091A201F0912B
:10177000A30188E791E00995109298010ACF109291
:10178000F40134CF1F920F920FB60F9211242F93B2
:101790003F934F935F936F937F938F939F93AF93F9
:1017A000BF93CF93DF93EF93FF9380915401C09148
:1017B000B603D0E087FF24C0109285001092840009
:1017C000809154018F5F8093540180915401082EC1
:1017D000000C990B8C179D0724F4809154018C30D8
:1017E000C4F18091840090918500049680349C49D6
:1017F00008F47AC08091840090918500049676C0A8
:1018000080915401082E000C990B8C179D07C4F68B
:10181000E09154018E2FEE0F990BFC01EE0FFF1F8C
:10182000E80FF91FEE56FC4F808186FFC9CFE0918B
:1018300054018E2FEE0F990BFC01EE0FFF1FE80FE6
:10184000F91FEE56FC4F808160E08F730E942F02DB
:10185000B7CF2091840030918500E09154018E2F04
:10186000EE0F990BFC01EE0FFF1FE80FF91FEE566C
:10187000FC4F81819281820F931F90938900809306
:101880008800E09154018E2FEE0F990BFC01EE0FB2
:10189000FF1FE80FF91FEE56FC4F808186FF11C035
:1018A000E09154018E2FEE0F990BFC01EE0FFF1FFC
:1018B000E80FF91FEE56FC4F808161E08F730E94A4
:1018C0002F02FF91EF91DF91CF91BF91AF919F9147
:1018D0008F917F916F915F914F913F912F910F90D9
:1018E0000FBE0F901F90189580E49CE9909389009B
:1018F000809388008FEF80935401E3CFCF92DF92E3
:10190000EF92FF920F931F93E82FF92F05C001501C
:1019100011092109310961F1908196239417B9F3D6
:1019200005C0015011092109310911F19081962357
:101930009413F7CFC12CD12CE12CF12C0AC08FEFDE
:10194000C81AD80AE80AF80A0C151D052E053F0525
:1019500079F080818623841791F36C2D7D2D8E2D57
:101960009F2D1F910F91FF90EF90DF90CF900895E2
:1019700060E070E080E090E01F910F91FF90EF90A9
:10198000DF90CF9008951092EC021092EB0288EE57
:1019900093E0A0E0B0E08093ED029093EE02A0937C
:1019A000EF02B093F0022AE031E03093EA02209394
:1019B000E90225EC30E03093F6022093F50224ECA6
:1019C00030E03093F8022093F70220EC30E03093BF
:1019D000FA022093F90221EC30E03093FC022093CC
:1019E000FB0222EC30E03093FE022093FD0226EC55
:1019F00030E0309300032093FF0210920203109214
:101A000003031092040310920503109289031092AD
:101A1000880380938A0390938B03A0938C03B093E5
:101A20008D038CE191E090938703809386038091EE
:101A3000B6038C3008F068C091E0980F9093B6031D
:101A400080932E0490E0FC01EE0FFF1FE80FF91FBA
:101A5000EE56FC4F88EB9BE09283818381E080937C
:101A60001A0410921B0483EC9BEAA6E7BBE3809365
:101A70001C0490931D04A0931E04B0931F0488EDD2
:101A80009BE6A6E7BBE38093200490932104A093F8
:101A90002204B093230482EF94EEA4E6BBE3809388
:101AA000240490932504A0932604B0932704109255
:101AB0000504109204048EE291E090930304809355
:101AC000020487E0809306048FEF8093070488E088
:101AD0008093080489E0809309048AE080930A04D3
:101AE0008BE080930B048CE080930C0410920D0427
:101AF00010920E0410920F04109210041092110410
:101B000061E080E10C941E098FEF80932E04A6CF34
:101B1000CF93DF93CDB7DEB72B970FB6F894DEBF28
:101B20000FBECDBF789484B5826084BD84B58160DA
:101B300084BD85B5826085BD85B5816085BD809198
:101B40006E00816080936E00109281008091810010
:101B50008260809381008091810081608093810008
:101B6000809180008160809380008091B1008460CA
:101B70008093B1008091B00081608093B00080912B
:101B80007A00846080937A0080917A0082608093EA
:101B90007A0080917A00816080937A0080917A0047
:101BA000806880937A001092C100E091F902F09170
:101BB000FA0282E08083E091F502F091F602108251
:101BC000E091F702F091F802108210920103E09187
:101BD000FD02F091FE0286E08083E091FB02F0912D
:101BE000FC02808180618083E091FB02F091FC0225
:101BF000808188608083E091FB02F091FC0280810B
:101C000080688083E091FB02F091FC0280818F7DEF
:101C10008083B8E52B2EB2E03B2E89EE92E00E9445
:101C20005201892BD1F31092AD011092AC0110E05A
:101C300000E089EE92E00E94520118161906BCF1EC
:101C40000F3F1105A1F58091210290912202893C5C
:101C5000910509F06BC189EC90E00E94E10180914F
:101C6000230290912402009709F03FC090E080E0A9
:101C70000E94E1010E94CB058EEF90E00E94E101FD
:101C80000E942B068EEF90E00E94E1018FEF90E022
:101C90000E94E10180E090E0892B09F4BECF0E9410
:101CA0005E01882309F4B5CF0E940000B2CF89EE0F
:101CB00092E00E945201181619060CF0BACF89EE74
:101CC00092E00E9430018C018091AC019091AD01B5
:101CD000FC01EE0FFF1FEF5DFD4F118300830196A6
:101CE0009093AD018093AC01A4CF8230910519F49B
:101CF00082E090E0BDCF81309105F9F481E090E081
:101D00000E94E10105E212E0F12CD8018D919D9134
:101D10008D0161E0009739F060E08130910519F0A4
:101D2000029721F462E08F2D0E945D02F394BEE0E1
:101D3000FB12EBCF0E94CB05A5CF83309105D1F4E8
:101D400083E090E00E94E10105E212E0F12CF8014D
:101D5000819191918F0161E08130910519F0892B7A
:101D600021F460E08F2D0E942F02F394FEE0FF1219
:101D7000EECFE0CF8430910509F081C084E090E09F
:101D80000E94E101F5E2CF2EF2E0DF2E10E000E04C
:101D9000D6016D917D916D016D3F710509F449C0CA
:101DA000072E000C880B990B0E94CF1623E333E318
:101DB00043EA5FE30E942E170E9468194B017B01E2
:101DC000702E61E0802F0E945D0260E0811491041A
:101DD00029F0BFEF8B16910429F461E0802F0E9457
:101DE0002F0227C0F801E75CFE4FE491E33069F170
:101DF00060F4E130D1F0E23019F160E0E0E8EE1695
:101E0000F1040CF061E0872DEACFE73041F1E830D2
:101E100071F1E43091F780918000806280938000BE
:101E200090928B0080928A0004C084B5806884BD43
:101E300087BC0F5F1F4F0E30110509F0A9CF7ACF75
:101E400084B5806284BD88BCF4CF809180008068B6
:101E5000809380009092890080928800EACF8091E0
:101E6000B00080688093B0008092B300E2CF809190
:101E7000B00080628093B0008092B400DACF8530E9
:101E8000910579F485E090E00E94E1010E948C06C2
:101E90000E946819072E000C880B990B0E94BE0245
:101EA00049CF86309105B1F486E090E00E94E101CF
:101EB0000E948C060E9468196230710508F43ACFBE
:101EC000660F771F660F771F65507109CB01019769
:101ED000F1F730CF87309105C9F487E090E00E9498
:101EE000E1010E94CB058EEF90E00E94E1012FB747
:101EF000F89460919E0170919F018091A001909152
:101F0000A1012FBF4AE00E944606BCCE089709F007
:101F1000B9CE88E090E00E94E1010E94CB058EEFEF
:101F200090E00E94E1010E949902ECCF8A3C910569
:101F300009F092C38AEC90E00E94E10180912302B3
:101F400090912402009709F048C088E090E00E9438
:101F5000E1010E94CB058EEF90E00E94E101E0904C
:101F60002702F09028021091250260E0812F0E9444
:101F70002F0283E090E00197F1F761E0812F0E944A
:101F80002F0283E290E00197F1F760E0812F0E9439
:101F90002F02C7019927FC01E559FE4F6491FC010E
:101FA000E95AFE4FE491F0E0EE0FFF1FE35BFE4FB6
:101FB0008591949100E412E42FE030E0462F0E94D6
:101FC0007E0C611571058105910509F49BCF6F5F4A
:101FD0007F4F8F4F9F4F9F7095CF8A30910509F0AB
:101FE0009CC18AE090E00E94E1010E94CB058EEF47
:101FF00090E00E94E1011092AF011092AE011092A8
:10200000FD0110921F020E94190322EF30E030936D
:10201000A5012093A40143EF50E05093A301409306
:10202000A20167EB73E08AEA0E948207882309F421
:1020300071C169EB73E08CEA0E948207882309F47E
:1020400069C16BEB73E08EEA0E948207882309F472
:1020500061C167EC73E080EB0E945E07882309F49E
:1020600059C169EC73E082EB0E945E07882309F492
:1020700051C16BEC73E084EB0E945E07882309F486
:1020800049C16DEB73E086EB0E948207882309F457
:1020900041C16FEB73E088EB0E948207882309F44B
:1020A00039C161EC73E08AEB0E948207882309F44E
:1020B00031C163EC73E08CEB0E948207882309F442
:1020C00029C165EC73E08EEB0E948207882309F436
:1020D00021C16091BB037091BC03072E000C880BDB
:1020E000990B0E94CF1620E030E040EA5BE30E94AB
:1020F0002E172B013C016091C7037091C80390E03B
:1021000080E00E94CD162FE632E143E053E30E94C7
:102110002E176B017C016091BD037091BE03072EE9
:10212000000C880B990B0E94CF1620E030E048ECA1
:1021300057E30E942E174B015C016091C903709117
:10214000CA0390E080E00E94CD162DEC3CEC4CE4FC
:1021500054E30E942E176093CD037093CE038093B7
:10216000CF039093D0036091CB037091CC0390E0A8
:1021700080E00E94CD166093D1037093D2038093C8
:10218000D3039093D4036091C3037091C403072ECB
:10219000000C880B990B0E94CF162AE037ED43EA1A
:1021A0005DE30E942E176093D5037093D60380934E
:1021B000D7039093D8036091C5037091C603072E8F
:1021C000000C880B990B0E94CF1620E030E040E213
:1021D00053E40E94F6186093D9037093DA03809356
:1021E000DB039093DC036091B7037091B803072E73
:1021F000000C880B990B0E94CF166093DD0370933F
:10220000DE038093DF039093E0036091B903709144
:10221000BA03072E000C880B990B0E94CF1620E002
:1022200030E040EA5CE30E942E176093E103709374
:10223000E2038093E3039093E4036091BF03709102
:10224000C003072E000C880B990B0E94CF1620E0CC
:1022500030E048E45AE30E942E176093E503709340
:10226000E6038093E7039093E80320E030E040E04A
:1022700057E4C701B6010E942E176093E9037093DB
:10228000EA038093EB039093EC03A7019601C3014B
:10229000B2010E942E176093ED037093EE038093BA
:1022A000EF039093F003A5019401C701B6010E94CA
:1022B0002E176093F1037093F2038093F3039093CE
:1022C000F4038CEE91E5A7E1B0E48093F5039093DD
:1022D000F603A093F703B093F80320E334E34EE74B
:1022E0005FE32093F9033093FA034093FB03509389
:1022F000FC0380E097E5A4E9B6E38093FD039093A7
:10230000FE03A093FF03B093000481E090E00E94DD
:10231000E101B8CC90E080E0FACF0B9709F0B2CCA5
:102320008BE090E00E94E1010E94CB058EEF90E0EF
:102330000E94E1010E948C066C837D838E839F83C3
:1023400014EF19838EE28A83CE0101960E945E0506
:10235000811103C00E94C30579C065E070E080E090
:1023600090E00E94BE0286EF898362E0CE01019672
:102370000E941A07882371F3698170E090E080E081
:102380000E94CF1620E030E040E853E40E942E1770
:102390006B017C016A8170E090E080E00E94CF16C2
:1023A0009B01AC01C701B6010E948A182091D1039C
:1023B0003091D2034091D3035091D4030E948918E5
:1023C0002091CD033091CE034091CF035091D003A3
:1023D0000E942E176B017C012091D9033091DA0302
:1023E0004091DB035091DC030E948A189B01AC01F1
:1023F0006091D5037091D6038091D7039091D80353
:102400000E94F618A70196010E948A186B017C01B0
:1024100041E00E94A6078EEF90E00E94E10119833F
:102420001A83CE0101960E945E05882379F06AE145
:1024300070E080E090E00E94BE0286EF898363E056
:10244000CE0101960E941A07811105C00E94C305A2
:102450000E94C30517CC20E030E048EC51E4C701EE
:10246000B6010E9489186B017C01AC019B010E949E
:102470002E172B013C01698170E090E080E00E9402
:10248000CF1620E030E040E853E40E942E174B01C5
:102490005C016A8170E090E080E00E94CF169B01B1
:1024A000AC01C501B4010E948A184B015C016B812B
:1024B00070E090E080E00E94CF1620E030E040E83D
:1024C0005BE30E942E179B01AC01C501B4010E9481
:1024D0008A184B015C012091E5033091E60340919D
:1024E000E7035091E803C301B2010E942E176887E9
:1024F00079878A879B872091E1033091E20340919D
:10250000E3035091E403C701B6010E942E179B011B
:10251000AC01688579858A859B850E948A182091FF
:10252000DD033091DE034091DF035091E0030E9410
:102530008A189B01AC01C501B4010E9489184B01A6
:102540005C012091F1033091F2034091F30350912B
:10255000F403C301B2010E942E172B013C0120910C
:10256000ED033091EE034091EF035091F003C7016A
:10257000B6010E942E179B01AC01C301B2010E945B
:102580008A182091E9033091EA034091EB035091BE
:10259000EC030E948A189B01AC01C501B4010E94A2
:1025A000F6186B017C01AC019B010E942E17209153
:1025B000FD033091FE034091FF03509100040E94FF
:1025C0002E174B015C012091F9033091FA034091E1
:1025D000FB035091FC03C701B6010E942E179B011B
:1025E000AC01C501B4010E948A182091F503309115
:1025F000F6034091F7035091F8030E948A186B018B
:102600007C0142E00E94A6078EEF90E00E94E1016B
:1026100020E03AE24DE257E46C817D818E819F811A
:102620000E94F6189B01AC0160E070E080E89FE337
:102630000E94891826EF38E248EA50E40E94A31964
:102640009B01AC01C701B6010E94F61842E00E944E
:10265000A6078EEF90E05BCE8B3C910509F012CB84
:102660008BEC90E00E94E101809123029091240282
:10267000009709F06DC090E080E00E94E1010E94A7
:10268000CB0580912E04282F30E0F901EE0FFF1FBB
:10269000E20FF31FEE56FC4F908196FDF3CA8C308B
:1026A00008F0F0CA1091250261E0812F0E945D02BE
:1026B00080912E04282F30E0F901EE0FFF1FE20F6A
:1026C000F31FEE56FC4F912F9F731081107C192B36
:1026D000108310922F04109230042CE0622F0E947D
:1026E0002D1B829FB001112430E020E0AB01420F8E
:1026F000531FFA01EE0FFF1FE40FF51FEE56FC4FBC
:10270000908196FD16C02F5F3F4F2C30310571F739
:1027100081110FC01092800082E08093810010929E
:10272000850010928400B19A80916F00826080933E
:102730006F00E0912E048E2F90E0FC01EE0FFF1F42
:10274000E80FF91FEE56FC4F8081806480839ACA9F
:102750008130910509F07EC081E090E00E94E101A6
:102760000E94CB05A0912502B0912602A03292E0F2
:10277000B907D4F580912F04E8E8CE2ED12CC81AE1
:10278000D10887FDD394CC0CDD1CCC0CDD1C0D2CAA
:10279000000CEE08FF08809130049101281B3109DC
:1027A00087FD3395220F331F220F331F032E000C9A
:1027B000440B550B2C193D094E095F09A53BB1058A
:1027C00014F0A4EBB0E0B7FF02C0B0E0A0E00E94BC
:1027D000191824EB30E040E050E00E94EF17C20EE1
:1027E000D31EE41EF51ED60120912E042C3008F0D5
:1027F00049CA80912F04E8E8F0E0E81BF10987FD61
:10280000F395CF01880F991F880F991FA817B90753
:1028100084F080913004A101481B510987FD539534
:10282000CA01880F991F880F991FA817B9070CF4C0
:10283000CD010297880F991F4FB7F89430E0F90146
:10284000EE0FFF1FE20FF31FEE56FC4F92838183C2
:102850004FBF18CA8A30910531F58AE090E00E9496
:10286000E1010E94CB051092AF011092AE011092CF
:10287000FD0110921F020E94190382EF90E09093D5
:10288000A5018093A401A3EFB0E0B093A301A093AE
:10289000A20180E00E94A70580E10E94A70588E0D0
:1028A0000E94A705EFC98B30910509F074C08BE039
:1028B00090E00E94E1010E94CB058EEF90E00E9423
:1028C000E10111E01093FC0183E580931E02109258
:1028D000FD0110921F0262E386E893E00E947805F2
:1028E0000E9458031093FC011092FD0110921F02E8
:1028F00066E083E50E943F04F82E1092AF018093BA
:10290000AE010AE114E0C8018A5194400F5F1F4FE5
:102910002091AF01F21639F086E893E00E941E057F
:10292000F8018587F0CF069729F010921A0481E00C
:1029300080931B040E9458038091280490912904DD
:102940009093AB018093AA0120912A0430912B042B
:102950003093A9012093A80120912C0430912D04DB
:102960003093A7012093A6010E94EA068EEF90E023
:102970000E94E1018091A8019091A9010E94EA06BC
:102980008EEF90E00E94E1018091A6019091A70155
:102990000E94EA0677C98431910589F484E190E0C8
:1029A0000E94E1010E94CB058EEF90E00E94E101C0
:1029B00060912702809125020E941E0963C985311A
:1029C000910501F585E190E00E94E1010E94CB05AF
:1029D0008EEF90E00E94E10180912502E0912702B4
:1029E000E43008F0E3E090911504E91710F0EFEF00
:1029F000E90FF0E0EE5FFB4F9489890F80680E9439
:102A0000180940C986319105C9F586E190E00E9418
:102A1000E1010E94CB058EEF90E00E94E1010DB72D
:102A20001EB7A5E2B2E0FD0190E080E02191319176
:102A30002F3F310511F00196F9CF2DB73EB7281B76
:102A4000390B0FB6F8943EBF0FBE2DBF6DB77EB7E2
:102A50006F5F7F4FFB01860F971F8E179F0721F037
:102A60002C9112962193F9CF82E094E00E943706D0
:102A70000FB6F8941EBF0FBE0DBF04C9479709F0EB
:102A800001C987E190E00E94E1010E94CB058EEF31
:102A900090E00E94E10181E00E9418098BE39FE130
:102AA0000197F1F7EFC8662777270C945715B0E028
:102AB000A0E0EDE5F5E10C9427185C017B016115C0
:102AC000710519F0DB018D939C9385010F5F1F4FFA
:102AD000F501D0818D2F90E00E94A7166C01892B03
:102AE000B9F5DD32B9F50F5F1F4FD5011196DC91B5
:102AF000C1E05801F1E0AF1AB10843E050E062EFE5
:102B000070E0C5010E94B016892B69F5680182E06A
:102B1000C80ED11C45E050E06DEE70E0C6010E9489
:102B2000B016892B21F4680197E0C90ED11CE1147D
:102B3000F10419F0D701CD92DC9260E070E080E8FA
:102B40009FEFC111FFC060E070E080E89FE7FAC02E
:102B50005801BBCFDB3229F485010E5F1F4FF50111
:102B6000D181C0E0C6CF43E050E06AEE70E0C5011D
:102B70000E94B016892BE9F0F80110E000E020E097
:102B800030E0A9015F01B0ED8B2E8D0E89E0881534
:102B9000C8F19C2E689491F88C2F8870C2FF16C0E3
:102BA000811102C00F5F1F4F3196D501DC91C92DF5
:102BB000E9CFE114F10429F00E5F1F4FF7011183F3
:102BC000008360E070E080EC9FE7BCC0882311F0D8
:102BD00001501109A5E0B0E00E940E189B01AC0164
:102BE000220F331F441F551F280D311D411D511D3C
:102BF000283999E93907490799E15907A8F2C660C8
:102C00009C2ED2CFAEEF8A1206C0C3FD3CC09C2ED4
:102C1000689493F8C9CFDF7DD534A9F580818D32D2
:102C200039F4C061DF011296818162E070E006C074
:102C3000DF018B32C1F3119661E070E080535D01DA
:102C4000A61AB70A8A30F8F4E0E8CE16ECE0DE0601
:102C50005CF4B601660F771F660F771FC60ED71E8E
:102C6000CC0CDD1CC80ED11C5D01FFEFAF1ABF0AF2
:102C70008C9180538A30A8F1C4FF03C0D194C194D1
:102C8000D1080C0D1D1DC1FF09C0E114F10431F084
:102C900081E0A81AB108D701AD92BC92CA01B9016E
:102CA0000E94CD16C370C33009F490584B015C01EB
:102CB00020E030E0A9010E94C816882309F440C032
:102CC000C1E2D1E017FF05C0119501951109C9E0D6
:102CD000D1E06E01B8E1CB1AD10880E2E82EF12CE8
:102CE0000FC0D501B1CFFE01259135914591549189
:102CF0000E191F09C501B4010E942E174B015C017A
:102D0000D501C4010E151F0574F72497F594E794B7
:102D1000CC16DD06A9F78A2F880F8B2F881F8F3FCF
:102D200049F020E030E0A901C501B4010E94C816B5
:102D3000811106C082E290E09093320480933104C6
:102D4000C501B401CDB7DEB7ECE00C944318911186
:102D50000C949B17803219F089508550C8F708955C
:102D6000FB01DC014150504088F08D9181341CF012
:102D70008B350CF4805E659161341CF06B350CF47E
:102D8000605E861B611171F3990B0895881BFCCF5F
:102D90000E940A1708F481E00895E89409C097FB9F
:102DA0003EF490958095709561957F4F8F4F9F4F22
:102DB0009923A9F0F92F96E9BB279395F695879566
:102DC00077956795B795F111F8CFFAF4BB0F11F429
:102DD00060FF1BC06F5F7F4F8F4F9F4F16C08823D0
:102DE00011F096E911C0772321F09EE8872F762F06
:102DF00005C0662371F096E8862F70E060E02AF047
:102E00009A95660F771F881FDAF7880F9695879532
:102E100097F90895990F0008550FAA0BE0E8FEEF07
:102E200016161706E807F907C0F012161306E4078E
:102E3000F50798F0621B730B840B950B39F40A2687
:102E400061F0232B242B252B21F408950A2609F465
:102E5000A140A6958FEF811D811D08950E94411705
:102E60000C94B5170E94A71738F00E94AE1720F0F7
:102E7000952311F00C949E170C94A41711240C9414
:102E8000E9170E94C61770F3959FC1F3950F50E0A4
:102E9000551F629FF001729FBB27F00DB11D639F0C
:102EA000AA27F00DB11DAA1F649F6627B00DA11DB2
:102EB000661F829F2227B00DA11D621F739FB00D58
:102EC000A11D621F839FA00D611D221F749F3327C8
:102ED000A00D611D231F849F600D211D822F762F61
:102EE0006A2F11249F5750409AF0F1F088234AF03E
:102EF000EE0FFF1FBB1F661F771F881F91505040AA
:102F0000A9F79E3F510580F00C949E170C94E91789
:102F10005F3FE4F3983ED4F3869577956795B79530
:102F2000F795E7959F5FC1F7FE2B880F911D96954A
:102F3000879597F9089599278827089597F99F67A6
:102F400080E870E060E008959FEF80EC0895002431
:102F50000A941616170618060906089500240A94FE
:102F600012161306140605060895092E0394000C84
:102F700011F4882352F0BB0F40F4BF2B11F460FF13
:102F800004C06F5F7F4F8F4F9F4F089557FD90583C
:102F9000440F551F59F05F3F71F04795880F97FB1D
:102FA000991F61F09F3F79F08795089512161306D7
:102FB0001406551FF2CF4695F1DF08C01616170606
:102FC0001806991FF1CF869571056105089408953B
:102FD000E894BB2766277727CB0197F90895052E3C
:102FE00097FB1EF400940E94061857FD07D00E941C
:102FF000581807FC03D04EF40C94061850954095D1
:10300000309521953F4F4F4F5F4F08959095809594
:10301000709561957F4F8F4F9F4F08950E947A184A
:10302000A59F900DB49F900DA49F800D911D11241C
:103030000895B7FF0C940E180E940E18821B930B74
:1030400008952F923F924F925F926F927F928F924C
:103050009F92AF92BF92CF92DF92EF92FF920F9327
:103060001F93CF93DF93CDB7DEB7CA1BDB0B0FB631
:10307000F894DEBF0FBECDBF09942A8839884888EE
:103080005F846E847D848C849B84AA84B984C88484
:10309000DF80EE80FD800C811B81AA81B981CE0F7B
:1030A000D11D0FB6F894DEBF0FBECDBFED01089560
:1030B000A1E21A2EAA1BBB1BFD010DC0AA1FBB1F3C
:1030C000EE1FFF1FA217B307E407F50720F0A21BAE
:1030D000B30BE40BF50B661F771F881F991F1A941B
:1030E00069F760957095809590959B01AC01BD0145
:1030F000CF010895A29FB001B39FC001A39F700D9F
:10310000811D1124911DB29F700D811D1124911DEF
:1031100008955058BB27AA270E94A1180C94B517F0
:103120000E94A71738F00E94AE1720F039F49F3F95
:1031300019F426F40C94A4170EF4E095E7FB0C9414
:103140009E17E92F0E94C61758F3BA176207730734
:103150008407950720F079F4A6F50C94E8170EF48F
:10316000E0950B2EBA2FA02D0B01B90190010C0197
:10317000CA01A0011124FF27591B99F0593F50F4AF
:10318000503E68F11A16F040A22F232F342F442707
:10319000585FF3CF469537952795A795F0405395FF
:1031A000C9F77EF41F16BA0B620B730B840BBAF0CF
:1031B0009150A1F0FF0FBB1F661F771F881FC2F73A
:1031C0000EC0BA0F621F731F841F48F4879577954E
:1031D0006795B795F7959E3F08F0B0CF9395880F08
:1031E00008F09927EE0F9795879508950E940A1980
:1031F0000C94B5170E94AE1758F00E94A71740F024
:1032000029F45F3F29F00C949E1751110C94E91793
:103210000C94A4170E94C61768F39923B1F35523A1
:1032200091F3951B550BBB27AA27621773078407D9
:1032300038F09F5F5F4F220F331F441FAA1FA9F36F
:1032400035D00E2E3AF0E0E832D091505040E6955D
:10325000001CCAF72BD0FE2F29D0660F771F881FBE
:10326000BB1F261737074807AB07B0E809F0BB0BB1
:10327000802DBF01FF2793585F4F3AF09E3F5105C5
:1032800078F00C949E170C94E9175F3FE4F3983E96
:10329000D4F3869577956795B795F7959F5FC9F7AE
:1032A000880F911D9695879597F90895E1E0660F2F
:1032B000771F881FBB1F621773078407BA0720F0A8
:1032C000621B730B840BBA0BEE1F88F7E095089511
:1032D0000E946F196894B1110C94E91708950E9427
:1032E000CE1788F09F5798F0B92F9927B751B0F0B3
:1032F000E1F0660F771F881F991F1AF0BA95C9F77A
:1033000014C0B13091F00E94E817B1E008950C9418
:10331000E817672F782F8827B85F39F0B93FCCF3CB
:10332000869577956795B395D9F73EF490958095F6
:10333000709561957F4F8F4F9F4F08950E940A1798
:1033400008F48FEF0895FA01EE0FFF1F3096210564
:103350003105A1F16115710561F48038BFE39B0768
:1033600049F168949038810561F08038BFEF9B0780
:1033700041F099234AF5FF3FE1053105210519F197
:10338000E8940894E795D901AA2329F4AB2FBE2F1E
:10339000F85FD0F310C0FF5F70F4A695E0F7F7393F
:1033A00050F019F0FF3A38F49F779F930DD00F90AB
:1033B00007FC9058089546F00C94A41760E070E064
:1033C00080E89FE308954FE79F775F934F933F9384
:1033D0002F930E94A31A2F913F914F915F910E94CA
:1033E0002E170C94001A0E940A17880B990B089547
:1033F00029F416F00C949E170C94E8170C94A4175B
:103400000E94CE17A8F39638A0F707F80F92E89419
:103410002BE33AEA48EB5FE70E9444170F920F92C2
:103420000F924DB75EB70F920E94EB1AE8E6F0E0FC
:103430000E94321A4F915F91EF91FF91E595EE1F37
:10344000FF1F49F0FE57E0684427EE0F441FFA952E
:10345000E1F74195550B0E94651A0F9007FE0C94F9
:10346000591A0895DF93CF931F930F93FF92EF9212
:10347000DF927B018C01689406C0DA2EEF010E9476
:103480004117FE01E894A5912591359145915591FB
:10349000A6F3EF010E94A118FE019701A801DA949A
:1034A00069F7DF90EF90FF900F911F91CF91DF911F
:1034B00008959B01AC0160E070E080E89FE30C940C
:1034C000F6180C949E170C941F1B0E94CE17D8F36D
:1034D0009923C9F3940F511DA3F39150504094F0D8
:1034E00059F0882332F0660F771F881F91505040A3
:1034F000C1F79E3F51052CF7880F911D9695879532
:1035000097F908955F3FACF0983E9CF0BB278695F5
:1035100077956795B79508F4B1609395C1F7BB0FA0
:1035200058F711F460FFE8CF6F5F7F4F8F4F9F4FC9
:10353000E3CF0C94E91716F00C941F1B0C94A417FE
:1035400068940C949E170E94CE17A8F39923C1F398
:10355000AEF3DF93CF931F930F93FF92C92FDD2715
:1035600088232AF02197660F771F881FDAF720E05B
:1035700030E040E85FEB9FE3883920F0803E38F090
:1035800021968F770E948A18E0E9F0E004C00E943B
:103590008A18EDEBF0E00E94321A8B01BE01EC01BB
:1035A000FB2E6F5771097595771F880B990B0E9439
:1035B000CF1628E132E741E35FE30E944117AF2DC8
:1035C0009801AE01FF900F911F91CF91DF910E9462
:1035D000A1180C94B517FA01DC01AA0FBB1F9B01BF
:1035E000AC01BF5728F4222733274427507820C046
:1035F000B75190F4AB2F0024469537952795011CC1
:10360000A395D2F3002071F0220F331F441FB3950E
:10361000DAF30ED00C94891861307105A0E88A079E
:10362000B94630F49B01AC0166277727882790784C
:10363000309621F0208331834283538308959F3F46
:1036400031F0915020F4879577956795B795880F5D
:10365000911D9695879597F90895991B79E004C077
:10366000991F961708F0961B881F7A95C9F78095C1
:103670000895EE0FFF1F0590F491E02D09940F932C
:103680001F93CF93DF938230910510F482E090E096
:10369000E0913504F091360430E020E0B0E0A0E0A5
:1036A000309799F42115310509F44AC0281B390BCC
:1036B00024303105D8F58A819B816115710589F126
:1036C000FB0193838283FE0111C0408151810281FD
:1036D000138148175907E0F04817590799F41097D4
:1036E00061F012960C93129713961C933296CF01A9
:1036F000DF91CF911F910F9108950093350410939E
:103700003604F4CF2115310551F04217530738F034
:10371000A901DB019A01BD01DF01F801C1CFEF0171
:10372000F9CF9093360480933504CDCFFE01E20F9C
:10373000F31F819391932250310939832883D7CF86
:103740002091330430913404232B41F42091020161
:10375000309103013093340420933304209100010D
:10376000309101012115310541F42DB73EB740914B
:10377000040150910501241B350BE0913304F091B5
:103780003404E217F307A0F42E1B3F0B2817390768
:1037900078F0AC014E5F5F4F2417350748F04E0FAD
:1037A0005F1F5093340440933304819391939FCFD0
:1037B000F0E0E0E09CCFCF93DF930097E9F0FC01CD
:1037C000329713821282A0913504B0913604ED0134
:1037D00030E020E01097A1F420813181820F931F07
:1037E00020913304309134042817390709F061C05F
:1037F000F0933404E0933304DF91CF910895EA010C
:10380000CE17DF07E8F54A815B819E01411551051E
:10381000B1F7E901FB83EA8349915991C40FD51FA0
:10382000EC17FD0761F4808191810296840F951F4A
:10383000E90199838883828193819B838A83F0E065
:10384000E0E012968D919C9113970097B9F52D9118
:103850003C911197CD010296820F931F2091330462
:10386000309134042817390739F6309751F5109202
:10387000360410923504B0933404A0933304BCCFC3
:10388000D383C28340815181840F951FC817D90704
:1038900061F44E5F5F4F88819981480F591F5183B2
:1038A00040838A819B81938382832115310509F0AE
:1038B000B0CFF0933604E09335049ECFFD01DC01D8
:1038C000C0CF13821282D7CFB0E0A0E0EAE6FCE1DD
:1038D0000C9423188C01009751F4CB010E943F1BDC
:1038E0008C01C801CDB7DEB7E0E10C943F18FC01B4
:1038F000E60FF71F9C0122503109E217F30708F485
:103900009DC0D901CD91DC911197C617D70798F0CA
:10391000C530D10530F3CE0104978617970708F319
:10392000C61BD70B2297C193D1936D937C93CF0184
:103930000E94DB1BD6CF5B01AC1ABD0A4C018C0E7A
:103940009D1EA0913504B0913604512C412CF12CD0
:10395000E12C109731F5809133049091340488154F
:10396000990509F05CC04616570608F058C08091CA
:10397000000190910101009741F48DB79EB74091ED
:10398000040150910501841B950BE817F90708F015
:1039900055C0F0933404E0933304F90171836083DC
:1039A000A0CF8D919C91119712966C9012971396BF
:1039B0007C901397A815B90559F56C0142E0C40E27
:1039C000D11CCA14DB0420F1AC014A195B09DA01ED
:1039D0001296159780F06282738251834083D901D9
:1039E0006D937C93E114F10471F0D7011396FC936D
:1039F000EE93129776CF22968C0F9D1FF90191833B
:103A00008083F301EFCFF0933604E093350469CF60
:103A10004816590608F42C017D01D3019ACFCB0139
:103A20000E943F1B7C01009749F0AE01B8010E9443
:103A3000211DC8010E94DB1B870153CF10E000E06D
:103A400050CFFB01DC0102C001900D92415050406B
:103A5000D8F70895FB01DC0101900D920020E1F7F9
:063A60000895F894FFCF69
:103A6600000037048000000000009401F4002101EA
:103A7600E6015201300144010000000078053105DD
:103A8600C0050E05EB001E050F0500000000C3096A
:103A9600F400C005F102302E303030303030303096
:103AA600303030303030006E616E00696E66006F07
:043AB6007666000030
:00000001FF
