:100000000C94CF010C9400020C9400020C9400029A
:100010000C9400020C9400020C9400020C94000258
:100020000C9400020C9400020C9400020C94000248
:100030000C9400020C94E80F0C9400020C94000243
:100040000C9400020C94A0120C9400020C94000278
:100050000C9400020C9400020C9400020C94A81062
:100060000C9400020C9472100C9448100C94000232
:100070000C9400020C9400020C9400020C940002F8
:100080000C9472120C9400020C9400020C94000266
:100090000C9400020C9400020C9400020C94F210D8
:1000A0000C9400020C9400020C9444120C94000274
:1000B0000C9400020C9400020C9400020C94161292
:1000C0000C9400020C9400020C9400020C940002A8
:1000D0000C9400020C9400020C9400020C94000298
:1000E0000C94000207634236B79BD8A71A396856AA
:1000F00018AEBAAB558C1D3CB7CC5763BD6DEDFD4A
:10010000753EF6177231BF000000803F0800000006
:10011000BE922449123EABAAAA2ABECDCCCC4C3EFC
:1001200000000080BEABAAAAAA3E00000000BF00EB
:100130000000803F0000000000084178D3BB4387E7
:10014000D1133D190E3CC3BD4282AD2B3E68EC82FB
:1001500076BED98FE1A93E4C80EFFFBE01C4FF7F80
:100160003F00000000000C9499030C948B030C9446
:1001700015160C946A160C94D8150C9456160C94FB
:1001800009020C9438160C94CB0A0C9447020C9478
:10019000A3030C9469020C94A1020C94F1150C9425
:1001A000290A0C941A0A0C949D030C9402020C94D4
:1001B00003160C9495030C94E7150C940A020C9406
:1001C000190A0C94830A0C94A2030C94FB150C944A
:1001D00074030C94FC070C944C160C948F1D0C9417
:1001E000A7030C9470030C9442160C94D1150C9434
:1001F00062030C940B020C9477030C9487030C9409
:100200003C0A0C948F030C9460160C9438020C94E6
:100210005B020C941F160C94DD150C9468030C946F
:100220007D030C9481030C940B160C9429160C94EA
:10023000CB0D0C94F3020C946C030C9413134E41ED
:100240004E494E495459494E46CDCCCC3D0AD72350
:100250003C17B7D13877CC2B329595E6241FB14F98
:100260000A000020410000C84200401C4620BCBEDD
:100270004CCA1B0E5AAEC59D7400002100240027F5
:10028000002A002D003000330001010000040107A6
:10029000010A0100002200250028002B002E003159
:1002A00000340002010000050108010B01020000FA
:1002B0000A0B02090C0D0E080703040100000000E0
:1002C000000000000000000000000000000000002E
:1002D00000000000000000000000121110000000EB
:1002E000000000000000000000000000000000000E
:1002F00000000000000020002300260029002C0040
:100300002F0032000001000003010601090105056C
:100310000505070508080808020202020A0A08087B
:1003200004040404010101010101010103030303A9
:1003300003030303040707070C0C0C0C0C0C0C0C38
:100340000202020206060606060606060B0B0B0B49
:100350000B0B0B0B0102102020080810204010206E
:100360004080020102010804020101020408102079
:100370004080804020100804020180040201804077
:1003800020100804020108040201010204081020E0
:100390004080010204081020408013138F1D112497
:1003A0001FBECFEFD1E2DEBFCDBF00E00CBF12E039
:1003B000A0E0B2E0E2E8FBE400E00BBF02C007907F
:1003C0000D92AC35B107D9F725E0ACE5B2E001C03C
:1003D0001D92A53EB207E1F711E0CEECD1E000E0BE
:1003E00006C021970109802FFE010E949123CD3C78
:1003F000D10780E00807A9F70E9427140C94AF25C5
:100400000C9400008091AA039091AB03891B990B77
:10041000089508950895AF92BF92CF92DF92EF9220
:10042000FF920F931F93CF93DF936C017B018B019E
:10043000040F151FEB015E01AE18BF08C017D107EE
:1004400059F06991D601ED91FC910190F081E02D78
:10045000C6011995892B79F7C501DF91CF911F91BD
:100460000F91FF90EF90DF90CF90BF90AF900895E5
:10047000FC01538D448D252F30E0842F90E0821BAA
:10048000930B541710F0CF96089501970895FC012F
:10049000918D828D981761F0A28DAE0FBF2FB11D87
:1004A0005D968C91928D9F5F9F73928F90E00895DF
:1004B0008FEF9FEF0895FC01918D828D981731F099
:1004C000828DE80FF11D858D90E008958FEF9FEFED
:1004D0000895FC01918D228D892F90E0805C9F4FC3
:1004E000821B91098F73992708958CE194E00E94F3
:1004F000690221E0892B09F420E0822F0895FC0194
:10050000A48DA80FB92FB11DA35ABF4F2C91848D74
:1005100090E001968F739927848FA689B7892C93D1
:10052000A089B1898C91837080648C93938D848D24
:10053000981306C00288F389E02D80818F7D808327
:100540000895EF92FF920F931F93CF93DF93EC01E7
:1005500081E0888F9B8D8C8D98131AC0E889F9896A
:10056000808185FF15C09FB7F894EE89FF8960836D
:10057000E889F98980818370806480839FBF81E0EE
:1005800090E0DF91CF911F910F91FF90EF90089530
:10059000F62E0B8D10E00F5F1F4F0F731127E02E0B
:1005A0008C8D8E110CC00FB607FCFACFE889F98943
:1005B000808185FFF5CFCE010E947F02F1CFEB8DC8
:1005C000EC0FFD2FF11DE35AFF4FF0829FB7F89417
:1005D0000B8FEA89FB8980818062CFCF682F8CE105
:1005E00094E00C94A102CF93DF93EC01888D8823D3
:1005F000B9F0AA89BB89E889F9898C9185FD03C086
:10060000808186FD0DC00FB607FCF7CF8C9185FF6A
:10061000F2CF808185FFEDCFCE010E947F02E9CF2E
:10062000DF91CF91089580E090E0892B29F00E941E
:10063000750281110E94000080E090E0892B49F052
:1006400080E090E0892B29F00E94000081110E9437
:10065000000080E090E0892B49F080E090E0892B59
:1006600029F00E94000081110E94000080E090E0CB
:10067000892B49F080E090E0892B29F00E9400004E
:1006800081110C94000008958150823108F05AC005
:10069000E82FF0E08827E05BFC4F8F4F0C9491230C
:1006A00070037403620368036C03A20377037D0382
:1006B000810387038B038F0395039903A2039D0393
:1006C000A303A703809180008F7780938000089513
:1006D000809180008F7DF9CF80918000877FF5CF5A
:1006E00084B58F7784BD089584B58F7DFBCF8091CD
:1006F000B0008F778093B00008958091B0008F7D17
:10070000F9CF809190008F77809390000895809129
:1007100090008F7DF9CF80919000877FF5CF8091F9
:10072000A0008F778093A00008958091A0008F7D16
:10073000F9CF8091A000877FF5CF809120018F773E
:10074000809320010895809120018F7DF9CF8091C1
:100750002001877FF5CF1F93CF93DF93282F30E0C1
:10076000F901E255FD4F8491F901EC5AFC4FD49107
:10077000F901E25FFC4FC491CC23A9F0162F81113F
:100780000E944403EC2FF0E0EE0FFF1FED56FD4FEB
:10079000A591B4918FB7F894EC91111108C0D09540
:1007A000DE23DC938FBFDF91CF911F910895DE2B65
:1007B000F8CF9091000289130DC0EDEAF2E0E491C8
:1007C0009FEF90930002E230E1F038F4EE2381F0E5
:1007D000E13089F060E00C94AB03E43049F110F1B2
:1007E000E530C1F7909173009D7F90937300F2CF35
:1007F00010926E00EFCF90916F009D7F90936F00ED
:10080000E9CF909170009D7F9093700091E090935C
:10081000B0009091B100987F94609093B1001092D5
:10082000B300D8CF909171009D7F90937100D2CF8B
:10083000909172009D7F90937200CCCFCF93DF9305
:1008400090E0FC01EC5AFC4F2491825F9C4FFC012C
:1008500084918823C9F090E0880F991FFC01E75824
:10086000FD4FA591B491FC01ED56FD4FC591D4917A
:1008700061110DC09FB7F8948C91209582238C93C1
:100880008881282328839FBFDF91CF91089562300C
:1008900051F49FB7F8943C91822F809583238C93D9
:1008A000E8812E2BEFCF8FB7F894EC912E2B2C9361
:1008B0008FBFEACF4F925F926F927F928F929F92FB
:1008C000AF92BF92CF92DF92EF92FF920F931F935E
:1008D000CF93DF9300D01F921F92CDB7DEB78B016D
:1008E00029013A01909100028917C9F09F3F09F44C
:1008F00091C00F900F900F900F900F90DF91CF91BC
:100900001F910F91FF90EF90DF90CF90BF90AF902D
:100910009F908F907F906F905F904F900895EDEA39
:10092000F2E024912D8327FDE4CF61E00E941E04B4
:100930002D81222321F08D81823009F005C24801EA
:10094000B12CA12C60E072E18AE790E0A50198014A
:100950000E947E2029833A834B835C8369017A015C
:1009600091E0C91AD108E108F1082FEFC216D104AD
:10097000E104F10409F00CF4B6C160E472E48FE024
:1009800090E0A50198010E947E2069017A0181E032
:10099000C81AD108E108F1089D81923009F026C1FA
:1009A00082E02FEFC216D104E104F10409F00CF447
:1009B0006CC160E970ED83E090E0A50198010E94B0
:1009C0007E2069017A0181E0C81AD108E108F108A6
:1009D00083E09FEFC916D104E104F10409F00CF49F
:1009E00054C168E478EE81E090E0A50198010E948E
:1009F0007E2069017A0181E0C81AD108E108F10876
:100A00009FEFC916D104E104F10411F00CF044C1C8
:100A100084E03BC180930002EDEAF2E094919D8373
:100A20009F3F09F466CF923009F474C058F49923BB
:100A300099F1913009F44CC097FD5BCF61E00E94C1
:100A40001E0479CF2D81243009F4AEC008F488C08B
:100A5000253091F7109220011092210190912101EF
:100A600098609093210190912101916090932101D0
:100A7000282F30E0F901E25FFC4FE491F0E0EE0F47
:100A8000FF1FED56FD4F45915491F901EC5AFC4F73
:100A9000E491E093AA0249CF14BC15BC94B59260CE
:100AA00094BD95B5916095BD282F30E0F901E25FC6
:100AB000FC4FE491F0E0EE0FFF1FED56FD4F459126
:100AC0005491F901EC5AFC4FE491E093AE022DCF22
:100AD0001092800010928100909181009860909314
:100AE000810090918100916090938100282F30E0E7
:100AF000F901E25FFC4FE491F0E0EE0FFF1FED56CD
:100B0000FD4F45915491F901EC5AFC4FE491E0936B
:100B1000AD020BCF1092B0001092B1009091B000D6
:100B200092609093B0009091B10091609093B10069
:100B3000282F30E0F901E25FFC4FE491F0E0EE0F86
:100B4000FF1FED56FD4F459154915093C4024093C1
:100B5000C302F901EC5AFC4FE491E093C502E5CEE3
:100B60001092900010929100909191009860909353
:100B7000910090919100916090939100282F30E026
:100B8000F901E25FFC4FE491F0E0EE0FFF1FED563C
:100B9000FD4F45915491F901EC5AFC4FE491E093DB
:100BA000AC0293E09D83C1CE1092A0001092A100F0
:100BB0009091A10098609093A1009091A100916004
:100BC0009093A100282F30E0F901E25FFC4FE491FF
:100BD000F0E0EE0FFF1FED56FD4F45915491F901E6
:100BE000EC5AFC4FE491E093AB029FCE2FEFC2167C
:100BF000D104E104F10409F00CF4A4C068E478EE37
:100C000081E090E0A50198010E947E2069017A01AF
:100C100081E0C81AD108E108F1089D81992309F4FF
:100C200089C19FEFC916D104E104F10409F00CF465
:100C3000EFCE62E17AE780E090E0A50194010E94A6
:100C40007E2069017A0181E0C81AD108E108F10823
:100C50009D81992309F453C186E09FEFC916D10401
:100C6000E104F10491F088F0C980DA80EB80FC8027
:100C70008AE0F594E794D794C7948A95D1F781E0F8
:100C8000C81AD108E108F10887E09091B100987F77
:100C9000892B8093B1002FC064E274EF80E090E074
:100CA000A50194010E947E2069017A0181E0C81AA1
:100CB000D108E108F10885E09FEFC916D104E104ED
:100CC000F10419F310F362E17AE780E090E0A50106
:100CD00094010E947E2069017A0181E0C81AD1083E
:100CE000E108F108B9CF81E02D812111CECF95B572
:100CF000987F892B85BD2FEF3FEFA9014114510447
:100D00006104710409F049C09D81923009F4E7C083
:100D10000CF0CEC0992309F4D3C0913009F0E9CD8D
:100D2000D0928900C09288002093BB023093BC020D
:100D30004093BD025093BE0280916F008260809309
:100D40006F00D7CD82E0D0CFB12CA12C60E072E152
:100D50008AE790E0A50198010E947E2069017A014E
:100D600081E0C81AD108E108F108C114D10491E06A
:100D7000E906F10404F591E02D81213069F58091B7
:100D80008100887F892B809381002FEF3FEFA9019D
:100D9000411451046104710419F2D801AA0FBB1F58
:100DA000A30192010E949D2028EE33E040E050E034
:100DB0000E94B020A9CF68E478EE81E090E0A50120
:100DC00098010E947E2069017A0181E0C81AD10849
:100DD000E108F10893E0D0CF8D81833001F5809157
:100DE0009100887F892B809391002FEF3FEFA9011D
:100DF000411451046104710481F6D0929900C092AB
:100E000098002093B7023093B8024093B9025093F0
:100E1000BA02809171008260809371006ACD2D8149
:100E2000243009F58091A100887F892B8093A1004F
:100E30002FEF3FEFA901411451046104710409F03F
:100E4000ACCFD092A900C092A8002093B3023093F7
:100E5000B4024093B5025093B60280917200826052
:100E60008093720046CD8D81853009F044CF80910A
:100E70002101887F892B809321012FEF3FEFA9016A
:100E8000411451046104710409F087CFD092290103
:100E9000C09228012093AF023093B0024093B10278
:100EA0005093B2028091730082608093730021CDD1
:100EB0008D81843031F20CF4A0CF853039F319CD17
:100EC000C7BC2093BF023093C0024093C10250932D
:100ED000C20280916E00826080936E000ACDC09243
:100EE000B3002093C6023093C7024093C8025093C8
:100EF000C90280917000826080937000FACC84E017
:100F00002FEFC216D104E104F10409F008F4EFCE8A
:100F1000C980DA80EB80FC809AE0F594E794D7945E
:100F2000C7949A95D1F791E0C91AD108E108F10860
:100F300085E0DDCE83E02FEFC216D104E104F10499
:100F400011F00CF076CED3CE3FB7F8948091A60284
:100F50009091A702A091A802B091A90226B5A89BE2
:100F600005C02F3F19F00196A11DB11D3FBFBA2F3B
:100F7000A92F982F8827BC01CD01620F711D811DFB
:100F8000911D42E0660F771F881F991F4A95D1F780
:100F900008958F929F92AF92BF92CF92DF92EF927D
:100FA000FF926B017C010E94A4074B015C01C114FC
:100FB000D104E104F104B9F00E94A4076819790989
:100FC0008A099B09683E73408105910580F321E001
:100FD000C21AD108E108F10888EE880E83E0981E55
:100FE000A11CB11CE4CFFF90EF90DF90CF90BF9099
:100FF000AF909F908F900895089520918202260FC0
:101000003327331F21323105ECF42091F203FC0128
:1010100090E080E0243069F082E00895A09182029F
:101020002191AC014E595D4FA40FB52FB11D2C93EA
:101030000196861798F380918202680F609382026E
:1010400080E0089581E008951092F20381E080939A
:10105000F1031092CC0361E084E10E94AB0361E0F4
:1010600085E10E94AB03E9EBF0E080818E7F808315
:1010700080818D7F808388E48093B80085E48093AD
:10108000BC000895CF93DF9391E090936102882391
:10109000B9F0C091B800D091BA008091BC008A7BB1
:1010A0008093BC0060E084E10E94AB0360E085E1D6
:1010B0000E94AB030E942408D093BA00C093B800EA
:1010C000DF91CF910895CF92DF92EF92FF920F932D
:1010D0001F93CF93DF93D0911B0481E0D13208F0AE
:1010E0009CC0C0911A040E94A4076B017C018091EE
:1010F000F20381116CC082E08093F20381E080935F
:10110000F1038FEF8093F0031092EF03D093EE037F
:10111000AAEFB3E0EEECF3E080E0D8138DC01092BC
:10112000CD038091CD03CC0FC82BC093CD0380910C
:10113000CC03813009F084C01092CC030E94A40734
:101140006B017C018091CD038093BB008091F403FF
:101150009091F503A091F603B091F703892B8A2BA8
:101160008B2BA1F00E94A4070091F4031091F503CA
:101170002091F6033091F7036C197D098E099F09C0
:10118000061717072807390708F442C08091BC00EA
:1011900083FDD8CF85EC8093BC000E94A4076B012F
:1011A0007C018091F203823009F44CC08091F003FD
:1011B0008F3F09F469C08091F003803209F466C062
:1011C0008091F003803309F463C084E026C08091ED
:1011D000F4039091F503A091F603B091F703892BE6
:1011E0008A2B8B2B09F483CF0E94A4070091F40370
:1011F0001091F5032091F6033091F7036C197D09E6
:101200008E099F09061717072807390708F06FCFBF
:101210008091F3030E94420885E01092F903109236
:101220001B041092F803DF91CF911F910F91FF9053
:10123000EF90DF90CF9008959D9191938F5F6DCF48
:1012400085EEA9CF8091F4039091F503A091F60368
:10125000B091F703892B8A2B8B2B09F4A2CF0E9424
:10126000A4070091F4031091F5032091F603309147
:10127000F7036C197D098E099F09061717072807C0
:10128000390708F08ECFC4CF80E0C7CF82E0C5CF4A
:1012900083E0C3CFCF92DF92EF92FF920F931F9321
:1012A000CF93DF93D82FC62F613208F098C00E94E9
:1012B000A4076B017C018091F20381116BC081E076
:1012C0008093F2038093F1039FEF9093F0031092C9
:1012D000EF039C0F9093EE038093CD038091CD0399
:1012E000DD0FD82BD093CD038091CC03813009F052
:1012F00078C01092CC030E94A4076B017C018091FE
:10130000CD038093BB008091F4039091F503A091ED
:10131000F603B091F703892B8A2B8B2BA1F00E9447
:10132000A4070091F4031091F5032091F603309186
:10133000F7036C197D098E099F09061717072807FF
:10134000390708F448C08091BC0083FDD8CF85ECF4
:101350008093BC000E94A4076B017C018091F20382
:10136000813009F440C08091EF038C1710F4C091D4
:10137000EF03EEECF3E0ACEAB3E080E08C1355C091
:101380008C2FDF91CF911F910F91FF90EF90DF9005
:10139000CF9008958091F4039091F503A091F60306
:1013A000B091F703892B8A2B8B2B09F484CF0E94F1
:1013B000A4070091F4031091F5032091F6033091F6
:1013C000F7036C197D098E099F090617170728076F
:1013D000390708F070CF8091F3030E944208C0E003
:1013E000CFCF85EEB5CF8091F4039091F503A09116
:1013F000F603B091F703892B8A2B8B2B09F4AECF20
:101400000E94A4070091F4031091F5032091F603C4
:101410003091F7036C197D098E099F09061717078C
:101420002807390708F09ACFD6CF91919D938F5F07
:10143000A5CF0895E091AB038091AA03E81730F49B
:10144000F0E0E455FC4F808190E008958FEF9FEF2E
:1014500008959091AB038091AA032FEF3FEF981767
:1014600048F4E92FF0E0E455FC4F208130E09F5F25
:101470009093AB03C9010895CF92DF92EF92FF9250
:101480000F931F93CF93DF937C01CB018A012091AF
:10149000F803222389F0EB016B01C40ED51ECC1595
:1014A000DD0569F06991D701ED91FC910190F08122
:1014B000E02DC7011995F3CF642F0E94FD07C801E5
:1014C000DF91CF911F910F91FF90EF90DF90CF9020
:1014D000089521E02093F80327E720931A0410923F
:1014E000F90310921B0442E050E0BC0189EB94E048
:1014F0000E943C0A0E946308982F8093B80581E0FF
:10150000911180E00895CF93DF931F92CDB7DEB79E
:1015100069832091F8032223F9F020911B042032E3
:1015200058F021E030E0FC013383228390E080E03A
:101530000F90DF91CF9108958091F903E82FF0E0AB
:10154000E650FC4F998190838F5F8093F9038093DD
:101550001B0481E090E0ECCF61E0CE0101960E9497
:10156000FD07F7CFCF93C82F81E08093F80383E581
:1015700080931A041092F90310921B046DE289EB18
:1015800094E00E94830A6C2F89EB94E00E94830A06
:10159000CF910C94630890E080E00895AF92BF92E1
:1015A000CF92DF92EF92FF920F931F93CF93DF932F
:1015B0006B017A01EC01C35ADD4F28813CE0389F72
:1015C0008001399F100D1124A0905505B12C27FFE3
:1015D0001FC0FB011182108288818F5F8883888100
:1015E0009801280F311D87FD3A95F6012A153B0514
:1015F0001CF488818C30C4F1808191810496803400
:101600009C4908F473C0F60180819181049670C0F2
:1016100088819801280F311D87FD3A952A153B05D1
:10162000DCF68881A801480F511D87FD5A95FA0103
:10163000EE0FFF1FE40FF51FEB53FB4F808186FF7A
:10164000CBCF8881F801E80FF11D87FDFA95CF0116
:10165000EE0FFF1FE80FF91FEB53FB4F808160E097
:101660008F730E94AB03B8CF808191812881A8013C
:10167000420F511D27FD5A959A01FA01EE0FFF1FE7
:10168000E20FF31FEB53FB4F21813281820F931F37
:10169000F7019183808388819801280F311D87FD90
:1016A0003A95F901EE0FFF1FE20FF31FEB53FB4FCB
:1016B000808186FF22C08881080F111D87FD1A9541
:1016C000F801EE0FFF1FE00FF11FEB53FB4F80817E
:1016D00061E08F73DF91CF911F910F91FF90EF9099
:1016E000DF90CF90BF90AF900C94AB0380E49CE967
:1016F000F701918380838FEF8883DF91CF911F91D2
:101700000F91FF90EF90DF90CF90BF90AF90089532
:101710008DEF90E00E94EE028EEF90E00C94EE02CE
:101720000F931F93CF93DF93D0E0C0E0FE01E2550B
:10173000FD4F8491FE01EC5AFC4F0491FE01E25FE3
:10174000FC4F1491112309F454C081110E944403E9
:10175000E12FF0E0EE0FFF1FEC50FD4FA591B4918B
:10176000EC91E02381E090E009F480E00E94EE0239
:101770002196C633D105D1F68EEF90E00E94EE029D
:10178000C0E090917B00977F8C2F887F892B80937E
:101790007B008C2F8770806480937C0080917A001E
:1017A000806480937A0080917A0086FDFCCF8091DE
:1017B000780060917900762F682F072E000C880B37
:1017C000990B0E945E1F24E13EEA43EA50E40E9426
:1017D0004E210E94C021CB010E94EE02CF5FC0319A
:1017E00081F68EEF90E0DF91CF911F910F910C94D5
:1017F000EE0280E090E0BACFEF92FF920F931F933A
:10180000CF93DF938C01F62E81E08093F80387E776
:1018100080931A041092F90310921B04F80160815E
:1018200089EB94E00E94830A0E9463088093B805C4
:10183000811124C0CF2D0F2C000CDD0B6F2D87E7FD
:101840000E944A091092AB038093AA0390E0C81744
:10185000D907E9F7E02EC02FD12F89EB94E00E9441
:10186000290A89938C2F8E198F15BCF381E0DF91A3
:10187000CF911F910F91FF90EF90089580E0F7CFE7
:101880000F931F93CF93DF931F921F92CDB7DEB7B5
:101890008B01898362E0CE0101960E94FC0B8823B4
:1018A00081F089819A81982789279827F801918367
:1018B000808381E00F900F90DF91CF911F910F9166
:1018C0000895F80111821082F5CF0F931F93CF93E3
:1018D000DF931F921F92CDB7DEB78B01898362E041
:1018E000CE0101960E94FC0B882381F089819A81A8
:1018F000982789279827F8019183808381E00F90AA
:101900000F90DF91CF911F910F910895F8011182EF
:101910001082F5CFCF93DF93EC0160E08E810E94BF
:10192000AB0361E08E810E94AB0360E08E810E9478
:10193000AB038BE891E00197F1F7DF91CF91089528
:10194000CF92DF92EF92FF920F931F93CF93DF938B
:101950006C017C0187E0E80EF11CD0E0C0E0062FAE
:1019600010E0B8010C2E02C0759567950A94E2F755
:101970006170F70181917F010E94AB032196C43011
:10198000D10579F7C601DF91CF911F910F91FF909B
:10199000EF90DF90CF900C948A0CCF92DF92EF9271
:1019A000FF920F931F93CF93DF93EC01F62E642FDA
:1019B0008C810E94AB038D818F3F19F060E00E9403
:1019C000AB030F2D10E08F8584FF25C06E0187E0EB
:1019D000C80ED11CF12CE12CB8010E2C02C075955B
:1019E00067950A94E2F76170F60181916F010E9498
:1019F000AB03FFEFEF1AFF0A88E0E816F10461F786
:101A0000CE01DF91CF911F910F91FF90EF90DF906A
:101A1000CF900C948A0CB80184E0759567958A95EF
:101A2000E1F7CE010E94A00C6F2DCE01DF91CF9186
:101A30001F910F91FF90EF90DF90CF900C94A00C2E
:101A400040E0682F86E595E00C94CD0CCF93DF93B2
:101A5000623028F0909165059860909365056093D9
:101A6000690510926A0590E490936B0580936C056C
:101A7000805C80936D0561E080915A050E941E0490
:101A800080915B058F3F19F061E00E941E0461E0C8
:101A900080915C050E941E04C6E5D5E09E01265596
:101AA00035408091650584FD0BC084E090E021966F
:101AB0002817390744F461E08E810E941E04EECF9E
:101AC00088E090E0F4CF8BE39DE00197F1F760E0D0
:101AD00080915A050E94AB0360E080915C050E94F2
:101AE000AB0380915B058F3F19F060E00E94AB0370
:101AF0008091650584FD39C063E086E595E00E942C
:101B0000A00CCBE4D6E4CE010197F1F763E086E5C3
:101B100095E00E94A00C2197F1F763E086E595E03F
:101B20000E94A00C83E592E00197F1F762E086E560
:101B300095E00E94A00C8091650580620E94200DB6
:101B400084E0809366058CE00E94200D81E00E9475
:101B5000200D8BE39FE10197F1F782E08093670509
:101B600086E0DF91CF910C94200D80620E94200DC1
:101B70008BE496E40197F1F78091650580620E94FD
:101B8000200D83E592E00197F1F780916505806271
:101B90000E94200DD0CF41E00E94CD0C81E090E06A
:101BA0000895FB0101900020E9F73197AF01461B32
:101BB000570BDC01ED91FC910280F381E02D19942B
:101BC0008F929F92AF92BF920F931F93CF93DF9309
:101BD000CDB7DEB7A1970FB6F894DEBF0FBECDBF6D
:101BE00019A2423008F44AE08E010F5D1F4F842E87
:101BF000912CB12CA12CA50194010E94B020E62FBC
:101C0000B901CA01EA3004F5E05DD801EE938D0117
:101C1000232B242B252B79F790E080E0109729F0D7
:101C2000BD018CE194E00E94D10DA1960FB6F8940D
:101C3000DEBF0FBECDBFDF91CF911F910F91BF903F
:101C4000AF909F908F900895E95CDFCFCF92DF92A5
:101C5000EF92FF92CF93DF936B017C016DE28CE1F9
:101C600094E00E94A102EC0166277727CB016C1952
:101C70007D098E099F094AE00E94E00D8C0F9D1F8F
:101C8000DF91CF91FF90EF90DF90CF900895BC014E
:101C9000990F880B990B97FD0C94260E4AE00C9433
:101CA000E00D4F925F926F927F928F929F92AF92D0
:101CB000BF92CF92DF92EF92FF920F931F93CF9339
:101CC0006B017C01742EAC019B010E944B226FE3DF
:101CD00072E0811126C046015701E894B7F82FEF52
:101CE0003FEF4FE75FE7C501B4010E944B2281112E
:101CF0000CC02FEF3FEF4FE75FE7C501B4010E9433
:101D0000571F63E472E0181664F02FEF3FEF4FE7C0
:101D10005FE4C701B6010E94F6211816ACF467E42F
:101D200072E08CE194E0CF911F910F91FF90EF90C2
:101D3000DF90CF90BF90AF909F908F907F906F90EB
:101D40005F904F900C94D10D2FEF3FEF4FE75FEC7A
:101D5000C701B6010E94571F87FDE1CF20E030E0A8
:101D6000A901C701B6010E94571F10E000E087FFDC
:101D70000AC06DE28CE194E00E94A1028C01F7FAA6
:101D8000F094F7F8F094C0E060E070E080E09FE34A
:101D90007C1641F020E030E040E251E40E944E2108
:101DA000CF5FF6CFA70196010E94E2202B013C01F4
:101DB0000E94C7214B015C014AE00E94E00D7C01BA
:101DC000E00EF11ECC23C1F1C501B4010E945C1FDD
:101DD0009B01AC01C301B2010E94E1204B015C01F7
:101DE0006EE28CE194E00E94A102E80EF91EC1505F
:101DF00018F120E030E040E251E4C501B4010E9456
:101E0000BD1F2B013C010E94C7214B01B12CA12C0D
:101E10004AE0C501B4010E94E00DE80EF91EC501BB
:101E2000B4010E945C1F9B01AC01C301B2010E947E
:101E3000E1204B015C01DBCFC701CF911F910F91D6
:101E4000FF90EF90DF90CF90BF90AF909F908F90DA
:101E50007F906F905F904F90089585ED8093BC00C8
:101E60008091F4039091F503A091F603B091F703EC
:101E70000796A11DB11D23E0B695A7959795879567
:101E80002A95D1F72091BC0024FD03C01092F203E3
:101E900008954091F4035091F5036091F603709119
:101EA000F703452B462B472B69F30097A105B10596
:101EB00041F025E32A95F1F700000197A109B10946
:101EC000E1CF8091F3030C944208EF92FF920F93BD
:101ED0001F93CF93DF937C01C091CE029091CF02EC
:101EE00004EE12E030E020E070E060E042E050E01C
:101EF00080E0F801A191B1918F01AF3FB10541F1AF
:101F0000AE3FB10529F46F5F7F4F4F5F5F4FF1CF59
:101F10006E157F05D1F7811102C0C42F952FE09176
:101F2000DD05F091DE052E173F0730F4E091D9056D
:101F3000F091DA05309749F410925C02ECE5F2E09A
:101F4000A0832F5F3F4F81E0E0CFE20FF31FF8CF78
:101F5000C093CE029093CF028091DD059091DE0573
:101F60002817390740F48091D9059091DA05280F98
:101F7000391F892B21F410925C022CE532E0F90123
:101F80001082C091D905D091DA0560E070E0CB01F4
:101F9000209719F0CE010E949C1D7093D10260938E
:101FA000D00260E070E0CB01209719F0CE010E94D2
:101FB000981D6093D2027093D3028093D4029093C1
:101FC000D502DF91CF911F910F91FF90EF9008956F
:101FD0001F920F920FB60F9211240BB60F922F93F0
:101FE0003F934F935F936F937F938F939F93AF93A1
:101FF000BF93EF93FF938091C6029091C702A09187
:10200000C802B091C902892B8A2B8B2BE1F19091E8
:10201000C502E091C302F091C402808189278083C8
:102020008091C6029091C702A091C802B091C902E6
:10203000181619061A061B069CF48091C602909188
:10204000C702A091C802B091C9020197A109B109C4
:102050008093C6029093C702A093C802B093C902AE
:10206000FF91EF91BF91AF919F918F917F916F9170
:102070005F914F913F912F910F900BBE0F900FBE2C
:102080000F901F901895809100020E94D903E8CF0D
:102090001F920F920FB60F9211240BB60F922F932F
:1020A0003F934F935F936F937F938F939F93AF93E0
:1020B000BF93EF93FF938CE194E00E947F02FF9126
:1020C000EF91BF91AF919F918F917F916F915F91B0
:1020D0004F913F912F910F900BBE0F900FBE0F901D
:1020E0001F9018951F920F920FB60F9211240BB6E6
:1020F0000F922F938F939F93EF93FF93E0912C0474
:10210000F0912D048081E0913204F091330482FD3E
:102110001DC09081809135048F5F8F7320913604AC
:10212000821741F0E0913504F0E0E45EFB4F958FBB
:1021300080933504FF91EF919F918F912F910F9094
:102140000BBE0F900FBE0F901F9018958081F2CF9D
:102150001F920F920FB60F9211242F933F938F93DC
:102160009F93AF93BF938091CA029091CB02A091AD
:10217000CC02B091CD023091A50223E0230F2D3780
:1021800058F50196A11DB11D2093A5028093CA02A6
:102190009093CB02A093CC02B093CD028091A60283
:1021A0009091A702A091A802B091A9020196A11D49
:1021B000B11D8093A6029093A702A093A802B093AA
:1021C000A902BF91AF919F918F913F912F910F9055
:1021D0000FBE0F901F90189526E8230F0296A11DA1
:1021E000B11DD2CF1F920F920FB60F9211240BB6D2
:1021F0000F922F933F934F935F936F937F938F93A0
:102200009F93AF93BF93EF93FF938091B900887F23
:10221000803609F44DC008F040C0883209F4A9C0E6
:1022200028F5803109F49DC0C8F4882309F4FBC067
:10223000883009F496C0FF91EF91BF91AF919F91C3
:102240008F917F916F915F914F913F912F910F905F
:102250000BBE0F900FBE0F901F901895883109F498
:1022600088C0803241F78093F00314C0803409F4B1
:102270009DC040F48033B9F38833E9F68093F003CE
:1022800085ECB0C0803509F485C0883509F496C066
:10229000883489F60E942D0FCECF883909F48CC07E
:1022A00038F5883729F050F4883611F0803719F660
:1022B00083E08093F2031092A40257C0883809F497
:1022C0007BC0803919F0803809F0B5CF8091A40225
:1022D000803208F071C0E091A40281E08E0F8093FB
:1022E000A4028091BB00F0E0EC57FD4F80833DC01D
:1022F000803B39F0E0F4803A09F479C0883A09F07B
:102300009ACF84E08093F2031092830210928202AB
:10231000E091D802F091D902199580918202811141
:102320000FC081E0809382021092620209C0803C5B
:1023300009F4A6CF883C09F4A3CF883B09F07BCFF2
:10234000E091830281E08E0F80938302F0E0EE59EA
:10235000FD4F80818093BB00909183028091820227
:1023600029C08091CD038093BB0085EC8093BC0095
:1023700062CF9091EF038091EE03981758F5E091AA
:10238000EF0381E08E0F8093EF03F0E0E253FC4F08
:102390008081E9CFE091EF0381E08E0F8093EF031E
:1023A0008091BB00F0E0E253FC4F80839091EF03FB
:1023B0008091EE039817C8F285E8D8CFE091EF033B
:1023C00081E08E0F8093EF038091BB00F0E0E25339
:1023D000FC4F80838091F10381115CCF81E0809379
:1023E000CC0384EA8093BC001092F20324CF85ECE6
:1023F0008093BC001092F2038091A402803230F4EA
:10240000E091A402F0E0EC57FD4F10826091A4022D
:1024100070E0E091D602F091D70284E892E019953D
:102420001092A40208CF1092F00334CF1F920F92A3
:102430000FB60F9211240BB60F922F933F934F9329
:102440005F936F937F938F939F93AF93BF93EF931C
:10245000FF9348E251E064E271E090E080E00E9486
:10246000CE0AFF91EF91BF91AF919F918F917F9194
:102470006F915F914F913F912F910F900BBE0F90F5
:102480000FBE0F901F9018951F920F920FB60F92CC
:1024900011240BB60F922F933F934F935F936F933B
:1024A0007F938F939F93AF93BF93EF93FF9348EAEC
:1024B00050E064EA70E083E090E00E94CE0AFF9171
:1024C000EF91BF91AF919F918F917F916F915F91AC
:1024D0004F913F912F910F900BBE0F900FBE0F9019
:1024E0001F9018951F920F920FB60F9211240BB6E2
:1024F0000F922F933F934F935F936F937F938F939D
:102500009F93AF93BF93EF93FF9348E950E064E943
:1025100070E082E090E00E94CE0AFF91EF91BF91BF
:10252000AF919F918F917F916F915F914F913F916B
:102530002F910F900BBE0F900FBE0F901F9018950C
:102540001F920F920FB60F9211240BB60F922F937A
:102550003F934F935F936F937F938F939F93AF932B
:10256000BF93EF93FF9348E850E064E870E081E0A8
:1025700090E00E94CE0AFF91EF91BF91AF919F91A1
:102580008F917F916F915F914F913F912F910F901C
:102590000BBE0F900FBE0F901F901895CF92DF9239
:1025A000EF92FF920F931F93E82FF92F05C0015070
:1025B00011092109310961F1908196239417B9F32A
:1025C00005C0015011092109310911F190819623AB
:1025D0009413F7CFC12CD12CE12CF12C0AC08FEF32
:1025E000C81AD80AE80AF80A0C151D052E053F0579
:1025F00079F080818623841791F36C2D7D2D8E2DAB
:102600009F2D1F910F91FF90EF90DF90CF90089535
:1026100060E070E080E090E01F910F91FF90EF90FC
:10262000DF90CF90089510921F0410921E0488EE40
:1026300093E0A0E0B0E08093200490932104A09365
:102640002204B093230423E132E030931D0420934D
:102650001C0425EC30E0309329042093280424EC5A
:1026600030E030932B0420932A0420EC30E03093A8
:102670002D0420932C0421EC30E030932F04209380
:102680002E0422EC30E0309331042093300426EC09
:1026900030E03093330420933204109235041092CA
:1026A000360410923704109238041092BC04109231
:1026B000BB048093BD049093BE04A093BF04B09369
:1026C000C00485E292E09093BA048093B90410921A
:1026D000DA051092D9051092DC051092DB051092F4
:1026E000DE051092DD0561E170E090E080E00E947F
:1026F000BE24009719F19093DA058093D90520E163
:1027000030E03093DC052093DB052091DD0530912E
:10271000DE05232B11F4FC01108280E190E0909300
:10272000DE058093DD056BE472E08091D905909120
:10273000DA050E94A82516C020832EC08091D905F5
:102740009091DA05009711F00E9435241092DA0575
:102750001092D9051092DE051092DD051092DC056D
:102760001092DB05EDECF5E02FEF48EB5BE080919C
:102770005505803308F791E0980F909355058083B5
:1027800090E0DC01AA0FBB1FA80FB91FAB53BB4FD2
:1027900012965C934E931197339685E0E93DF807C6
:1027A00031F781E08093B9051092BA0583EC9BEA7A
:1027B000A6E7BBE38093BB059093BC05A093BD0542
:1027C000B093BE0588ED9BE6A6E7BBE38093BF050B
:1027D0009093C005A093C105B093C20582EF94EE1B
:1027E000A4E6BBE38093C3059093C405A093C505FD
:1027F000B093C605109259051092580587E392E0F0
:10280000909357058093560587E080935A058FEF84
:1028100080935B0588E080935C0589E080935D058B
:102820008AE080935E058BE080935F058CE0809367
:102830006005109261051092620510926305109276
:1028400064051092650561E080E10C94260DCF933C
:10285000DF9300D000D000D01F921F92CDB7DEB71B
:10286000789484B5826084BD84B5816084BD85B56B
:10287000826085BD85B5816085BD80916E00816077
:1028800080936E001092810080918100826080931D
:10289000810080918100816080938100809180001F
:1028A0008160809380008091B10084608093B1004A
:1028B0008091B00081608093B0008091910082602F
:1028C000809391008091910081608093910080912C
:1028D00090008160809390008091A100826080933D
:1028E000A1008091A10081608093A1008091A0004F
:1028F00081608093A00080912101826080932101FA
:10290000809121018160809321018091200181606B
:102910008093200180917A00846080937A00809176
:102920007A00826080937A0080917A00816080933F
:102930007A0080917A00806880937A001092C100BA
:10294000E0912C04F0912D0482E08083E091280432
:10295000F09129041082E0912A04F0912B04108256
:1029600010923404E0913004F091310486E08083C9
:10297000E0912E04F0912F04808180618083E091AA
:102980002E04F0912F04808188608083E0912E04D2
:10299000F0912F04808180688083E0912E04F09173
:1029A0002F0480818F7D808378E8272E312C8CE165
:1029B00094E00E946902892BD1F31092A90310922E
:1029C000A80310E000E08CE194E00E946902181670
:1029D000190634F10F3F110519F50091E00210912D
:1029E000E102E090E202F090E302C8010E94EE02F0
:1029F000C7010E94EE02093C110579F5EF2809F0A4
:102A000083C10E94900B82E090E00E94EE0281E080
:102A100090E00E94EE0286E190E00E94EE0274C116
:102A20008CE194E00E9469021816190664F68CE1A4
:102A300094E00E9447028C018091A8039091A90321
:102A4000FC01EE0FFF1FE052FD4F11830083019642
:102A50009093A9038093A803B6CF0A3C110509F00F
:102A6000CCC1E114F10419F554EEE52E52E0F52E37
:102A700010E000E0D7018D919D917D018F3F910580
:102A800009F440C18E3F910519F40F5F1F4FF2CF3B
:102A900061E00115110541F060E00130110521F000
:102AA0000230110539F762E00E941E04E3CFB1E065
:102AB000EB16F104F9F444EEE42E42E0F42E10E0BB
:102AC00000E0F701819191917F018F3F910509F419
:102AD00019C18E3F910519F40F5F1F4FF2CF60E0CF
:102AE0000115110521F00130110559F761E00E942F
:102AF0001E04E7CFF2E0EF16F10409F0F1C000EE9A
:102B000012E0D8011496ED90FC90BFEFEB16F104A3
:102B100009F4FAC0F80166817781072E000C880B52
:102B2000990B0E945E1F29EC38EC48E45FE30E9499
:102B30004E210E94C0214B016B0161E08E2D0E944D
:102B40001E048114910429F460E08E2D0E94AB03D1
:102B50002CC0FFEF8F16910411F461E0F6CFF7015E
:102B6000FF27E255FD4FE491E150E23108F0B2C099
:102B7000F0E08827E154FA4E8F4F0C949123D11541
:102B8000D815DD15E715F1156A16FB1503160B169A
:102B900015161F162916381642166A164C165616A2
:102BA000601684B5806884BD87BC0A5F1F4FA9CFBB
:102BB00084B5806284BD88BCF8CF80918000806835
:102BC000809380009092890080928800EECF80915F
:102BD000800080628093800090928B0080928A00B7
:102BE000E4CF8091800088608093800090928D0077
:102BF00080928C00DACF8091B00080688093B00022
:102C00008092B300D2CF8091B00080628093B000F8
:102C10008092B400CACF8091900080688093900029
:102C20009092990080929800C0CF8091900080622D
:102C30008093900090929B0080929A00B6CF8091F2
:102C4000900088608093900090929D0080929C00FC
:102C5000ACCF8091A00080688093A0008091A000FC
:102C60008F7B8093A0009092A9008092A8009DCFB6
:102C70008091A00080628093A0009092AB0080922F
:102C8000AA0093CF8091A00088608093A0009092CA
:102C9000AD008092AC0089CF809120018068809344
:102CA000200190922901809228017FCF80912001FC
:102CB00080628093200190922B0180922A0175CF2F
:102CC0008091200188608093200190922D01809254
:102CD0002C016BCF20E8C216D1040CF03ECF34CFCC
:102CE00033E0E316F104D9F490E080E00E94650F30
:102CF0006091D0027091D102072E000C880B990BC5
:102D00000E94C9070E94900B8EEF90E00E94EE0295
:102D10008FEF90E00E94EE020E94130348CE44E041
:102D2000E416F10499F490E080E00E94650F809130
:102D3000D0029091D1028230910520F3880F991F23
:102D4000880F991F05970197F1F7DCCF55E0E5163D
:102D5000F10489F40E94900B2FB7F8946091CA0295
:102D60007091CB028091CC029091CD022FBF4AE0AE
:102D70000E94E00DC9CF86E0E816F10429F40E9414
:102D8000900B0E94A407F3CF97E0E916F10459F5E0
:102D9000F090E40281E090E00E94650F0091D00283
:102DA0001091D10282E090E00E94650FE091CE0286
:102DB000F091CF02EE0FFF1FE052FD4F8081918115
:102DC00020E030E0A9018D3F910541F02091D00233
:102DD0003091D102032E000C440B550BB8018F2DFE
:102DE0000E945A048FCFA8E0EA16F10409F08CCFB4
:102DF0008091E4020E94D90385CF043D110509F0BA
:102E000082C3E114F10409F045C01091E40260E0CE
:102E1000812F0E94AB0383E090E00197F1F761E01E
:102E2000812F0E94AB0383E290E00197F1F760E00D
:102E3000812F0E94AB038091E6029091E7029927CF
:102E4000FC01EC5AFC4F6491FC01E25FFC4FE49101
:102E5000F0E0EE0FFF1FEC50FD4F8591949100E4E0
:102E600012E42FE030E0462F0E94CE126B017C016D
:102E7000C114D104E104F10439F0BFEFCB1ADB0A2D
:102E8000EB0AFB0AEFE0FE220E94900B4AE0C7012A
:102E9000B6016ECFFAE0EF16F10409F090C110927E
:102EA000AB031092AA031092F90310921B040E9424
:102EB000240829E032E03093D9022093D8024AE076
:102EC00052E05093D7024093D6026EE675E08AEA4C
:102ED0000E94650C882309F46FC160E775E08CEAF5
:102EE0000E94650C882309F467C162E775E08EEAE9
:102EF0000E94650C882309F45FC16EE775E080EBE2
:102F00000E94400C882309F457C160E875E082EB09
:102F10000E94400C882309F44FC162E875E084EBFD
:102F20000E94400C882309F447C164E775E086EBF2
:102F30000E94650C882309F43FC166E775E088EBC1
:102F40000E94650C882309F437C168E775E08AEBB5
:102F50000E94650C882309F42FC16AE775E08CEBA9
:102F60000E94650C882309F427C16CE775E08EEB9D
:102F70000E94650C882309F41FC16091720570914D
:102F80007305072E000C880B990B0E945E1F20E032
:102F900030E040EA5BE30E94BD1F2B013C016091E1
:102FA0007E0570917F0590E080E00E945C1F2FE617
:102FB00032E143E053E30E94BD1F6B017C0160914D
:102FC000740570917505072E000C880B990B0E94F3
:102FD0005E1F20E030E048EC57E30E94BD1F4B012C
:102FE0005C01609180057091810590E080E00E9415
:102FF0005C1F2DEC3CEC4CE454E30E94BD1F60933D
:10300000840570938505809386059093870560916C
:1030100082057091830590E080E00E945C1F6093C0
:1030200088057093890580938A0590938B0560913C
:103030007A0570917B05072E000C880B990B0E9476
:103040005E1F2AE037ED43EA5DE30E94BD1F6093F7
:103050008C0570938D0580938E0590938F056091FC
:103060007C0570917D05072E000C880B990B0E9442
:103070005E1F20E030E040E253E40E944E21609366
:1030800090057093910580939205909393056091BC
:103090006E0570916F05072E000C880B990B0E942E
:1030A0005E1F6093940570939505809396059093A9
:1030B00097056091700570917105072E000C880BC3
:1030C000990B0E945E1F20E030E040EA5CE30E9422
:1030D000BD1F609398057093990580939A0590930E
:1030E0009B056091760570917705072E000C880B83
:1030F000990B0E945E1F20E030E048E45AE30E94F2
:10310000BD1F60939C0570939D0580939E059093D1
:103110009F0520E030E040E057E4C701B6010E947F
:10312000BD1F6093A0057093A1058093A2059093A5
:10313000A305A7019601C301B2010E94BD1F6093C0
:10314000A4057093A5058093A6059093A705A501F6
:103150009401C701B6010E94BD1F6093A80570933A
:10316000A9058093AA059093AB058CEE91E5A7E1A4
:10317000B0E48093AC059093AD05A093AE05B093F9
:10318000AF0520E334E34EE75FE32093B0053093CF
:10319000B1054093B2055093B30580E097E5A4E9EB
:1031A000B6E38093B4059093B505A093B605B093AC
:1031B000B70581E090E031CC90E080E02ECC9BE040
:1031C000E916F10409F0A0CD0E94900B90E080E098
:1031D0000E94650F2091D2023091D3024091D40217
:1031E0005091D5022C833D834E835F8384EF898386
:1031F0008EE28A83CE0101960E94690A811103C082
:103200000E94880B7AC065E070E080E090E00E9448
:10321000C90786EF898362E0CE0101960E94FC0B0C
:10322000882371F3698170E090E080E00E945E1F66
:1032300020E030E040E853E40E94BD1F6B017C01B8
:103240006A8170E090E080E00E945E1F9B01AC010B
:10325000C701B6010E94E2202091880530918905BE
:1032600040918A0550918B050E94E12020918405B0
:103270003091850540918605509187050E94BD1FBC
:103280006B017C0120919005309191054091920550
:10329000509193050E94E2209B01AC0160918C0546
:1032A00070918D0580918E0590918F050E944E2121
:1032B000A70196010E94E2206B017C0141E00E947F
:1032C000510E8EEF90E00E94EE0284EF89838A8394
:1032D000CE0101960E94690A882379F06AE170E0C4
:1032E00080E090E00E94C90786EF898363E0CE0109
:1032F00001960E94FC0B811105C00E94880B0E9460
:10330000880B02CD20E030E048EC51E4C701B60163
:103310000E94E1206B017C01AC019B010E94BD1F5A
:103320002B013C01698170E090E080E00E945E1F0B
:1033300020E030E040E853E40E94BD1F4B015C01F7
:103340006A8170E090E080E00E945E1F9B01AC010A
:10335000C501B4010E94E2204B015C016B8170E069
:1033600090E080E00E945E1F20E030E040E85BE3F8
:103370000E94BD1F9B01AC01C501B4010E94E22067
:103380004B015C0120919C0530919D0540919E056B
:1033900050919F05C301B2010E94BD1F68877987C4
:1033A0008A879B87209198053091990540919A05CD
:1033B00050919B05C701B6010E94BD1F9B01AC0146
:1033C000688579858A859B850E94E22020919405F5
:1033D0003091950540919605509197050E94E22005
:1033E0009B01AC01C501B4010E94E1204B015C01CD
:1033F0002091A8053091A9054091AA055091AB05EF
:10340000C301B2010E94BD1F2B013C012091A40504
:103410003091A5054091A6055091A705C701B601B9
:103420000E94BD1F9B01AC01C301B2010E94E220BA
:103430002091A0053091A1054091A2055091A305CE
:103440000E94E2209B01AC01C501B4010E944E2103
:103450006B017C01AC019B010E94BD1F2091B40552
:103460003091B5054091B6055091B7050E94BD1F3A
:103470004B015C012091B0053091B1054091B2053E
:103480005091B305C701B6010E94BD1F9B01AC015D
:10349000C501B4010E94E2202091AC053091AD0538
:1034A0004091AE055091AF050E94E2206B017C0176
:1034B00042E00E94510E8EEF90E00E94EE0220E06A
:1034C0003AE24DE257E46C817D818E819F810E94BA
:1034D0004E219B01AC0160E070E080E89FE30E9418
:1034E000E12026EF38E248EA50E40E94FB219B01EC
:1034F000AC01C701B6010E944E2142E00E94510E6C
:103500008EEF90E08ACA0E3D110509F0FDCBE11463
:10351000F10409F0ADC0E1E0F2E010E000E08191DB
:103520009191019609F0A1C06801CC0CDD1CC60187
:10353000800F911FAC0143535A4F7A01DA018C91ED
:10354000803308F05CC0B090E40261E08B2D0E94F3
:103550001E04F7018081282F30E0F901EE0FFF1FD4
:10356000E20FF31FEB53FB4F2B2D2F73B22E9081E5
:10357000907CB92AB082D70111961C9211971296AD
:103580001C922CE0622F0E948523829FB00111249F
:1035900050E040E0FB01E40FF51F9F01220F331FB5
:1035A000E20FF31FEB53FB4F908196FD16C04F5F68
:1035B0005F4F4C30510571F7813059F51092800002
:1035C00082E0809381001092850010928400B19A6D
:1035D00080916F00826080936F000C0D1D1DF801BB
:1035E000E353FA4FE0818E2F90E0FC01EE0FFF1FB6
:1035F000E80FF91FEB53FB4F808180648083F60155
:10360000EF5FFD4F8091E4029091E502918380830A
:1036100079CB823061F410929000809391001092E7
:1036200095001092940088BB80937100D6CF8330B0
:1036300069F41092A00082E08093A1001092A5008E
:103640001092A40089BB80937200C7CF8111C5CFAF
:103650001092200182E080932101109225011092A6
:1036600024018ABB80937300B8CF0F5F1F4F57CFE1
:10367000B1E0EB16F10409F099C02091E402309119
:10368000E502E1E0F2E0EE24EA94FE2C90E080E036
:10369000419151912417350709F47C010196853039
:1036A0009105B1F7EFEFEE16FE0609F42BCBA091D2
:1036B000E602B091E7028701000F111FA032F2E08D
:1036C000BF07E4F5F801EE0DFF1DE353FA4F8181CA
:1036D0004101881A910887FD9394880C991C880CE5
:1036E000991C092C000CAA08BB08828128E532E04D
:1036F000281B310987FD3395220F331F220F331FFB
:10370000032E000C440B550B281939094A095B0993
:10371000A53BB10514F0A4EBB0E0B7FF02C0B0E0E8
:10372000A0E00E94A82024EB30E040E050E00E949E
:103730007E20820E931EA41EB51ED4010E0D1F1DE9
:10374000F801E353FA4F2081203308F0DBCA81816E
:10375000A101481B510987FD5395CA01880F991F84
:10376000880F991FA817B90784F08281E8E5F2E075
:10377000E81BF10987FDF395CF01880F991F880F8A
:10378000991FA817B9070CF4CD010297880F991F4C
:103790004FB7F89430E0F901EE0FFF1FE20FF31F6F
:1037A000EB53FB4F928381834FBFACCAF2E0EF161D
:1037B000F10409F07BC02091E4023091E502A1E020
:1037C000B2E0EFEFFFEF90E080E04D915D912417C4
:1037D000350709F4FC01019685309105B1F710E039
:1037E00000E0EF3FFE0709F45AC0CF01880F991F90
:1037F000E80FF91FE353FA4F8281B8E5CB2EB2E010
:10380000DB2EC81AD10887FDD394CC0CDD1CCC0C60
:10381000DD1C0D2C000CEE08FF0881814101881A87
:10382000910887FD9394880C991C880C991C092C8D
:10383000000CAA08BB0880818F3FA9F190E0FC0131
:10384000EE0FFF1FE80FF91FEB53FB4F81819281B1
:1038500073E0880F991F7A95E1F7B0E0A0E0E4E00B
:10386000B595A79597958795EA95D1F702969C010E
:103870002F5F3F4F032E000C440B550B28193909BD
:103880004A095B09A4EBB0E00E949D20A7019601C4
:10389000281939094A095B090E947E2089010E9482
:1038A000900BC801BAC890E080E0E1CF33E0E316A6
:1038B000F104B1F54091E4025091E502E1E0F2E05B
:1038C0008FEF9FEF30E020E061917191461757072D
:1038D00009F4C9012F5F3F4F25303105A9F78F3F0C
:1038E000980709F40FCA9C01220F331F820F931F00
:1038F000FC01E353FA4FE0818E2F90E0FC01EE0FC4
:10390000FF1FE80FF91FEB53FB4F80818F7B8083F4
:103910002F5F3D4FEFEFFFEFD901ED93FC93F2C91D
:10392000FAE0EF16F10401F51092AB031092AA032E
:103930001092F90310921B040E94240829E032E03F
:103940003093D9022093D8024AE052E05093D70234
:103950004093D60280E00E94B20A80E10E94B20A3F
:1039600088E00E94B20ACEC95BE0E516F10409F0D6
:1039700071C011E01093F80383E580931A0410924C
:10398000F90310921B0462E389EB94E00E94830A1E
:103990000E9463081093F8031092F90310921B041D
:1039A00066E083E50E944A09F82E1092AB038093EB
:1039B000AA0309EB15E0C801895B95400F5F1F4F13
:1039C0002091AB03F21641F089EB94E00E94290AA2
:1039D000D8011D968C93EFCF069729F01092B90568
:1039E00081E08093BA050E9463088091C705909199
:1039F000C8059093DF028093DE028091C905909103
:103A0000CA059093DD028093DC028091CB059091F2
:103A1000CC059093DB028093DA020E94900B809198
:103A2000DE029091DF020E94470E8EEF90E00E942E
:103A3000EE028091DC029091DD020E94470E8EEF33
:103A400090E00E94EE028091DA029091DB020E94E7
:103A5000470E5AC9B4E1EB16F10439F46091E6025D
:103A60008091E4020E94260D4FC9E5E1EE16F104B3
:103A7000B1F48091E402E091E602E43008F0E3E082
:103A800090916905E91710F0EFEFE90FF0E0EA5ABD
:103A9000FA4F9489890F80680E94200D35C9F6E19C
:103AA000EF16F10479F50DB71EB7A4EEB2E0FD01F3
:103AB00090E080E0219131912F3F310511F0019686
:103AC000F9CF2DB73EB7281B390B0FB6F8943EBF80
:103AD0000FBE2DBF6DB77EB76F5F7F4FFB01860FA7
:103AE000971FE817F90721F02C9112962193F9CF2F
:103AF00086E595E00E94D10D0FB6F8941EBF0FBE6B
:103B00000DBF02C937E1E316F10409F0FDC881E0F9
:103B10000E94200D8BE39FE10197F1F7F5C880919A
:103B2000D9059091DA05009711F00C943524089589
:103B3000662777270C94D81D1F93FC0199278827A7
:103B4000BC01E89411911032E9F3193010F01E30E5
:103B5000C8F31B3251F01D3249F4689406C00E942C
:103B6000C31D610F711D811D911D119110531A30DC
:103B7000B0F33EF490958095709561957F4F8F4F8F
:103B80009F4F1F910895592F482F372F262F660FCB
:103B9000771F881F991F660F771F881F991F620F55
:103BA000731F841F951F660F771F881F991F089525
:103BB0008F929F92AF92BF92CF92DF92EF92FF923D
:103BC0000F931F93CF93DF935C017B016115710508
:103BD00019F0DB018D939C9385010F5F1F4FF50159
:103BE000D0818D2F90E00E94361F6C01892BB9F592
:103BF000DD32B9F50F5F1F4FD5011196DC91C1E0A1
:103C00005801F1E0AF1AB10843E050E066E472E019
:103C1000C5010E943F1F892B69F5680182E0C80E2B
:103C2000D11C45E050E061E472E0C6010E943F1FF4
:103C3000892B21F4680197E0C90ED11CE114F1042D
:103C400019F0D701CD92DC9260E070E080E89FEF40
:103C5000C111FFC060E070E080E89FE7FAC0580142
:103C6000BBCFDB3229F485010E5F1F4FF501D181F7
:103C7000C0E0C6CF43E050E06EE372E0C5010E94B1
:103C80003F1F892BE9F0F80110E000E020E030E070
:103C9000A9015F01B0ED8B2E8D0E89E08815C8F16A
:103CA0009C2E689491F88C2F8870C2FF16C08111E9
:103CB00002C00F5F1F4F3196D501DC91C92DE9CFAE
:103CC000E114F10429F00E5F1F4FF7011183008307
:103CD00060E070E080EC9FE7BCC0882311F00150E9
:103CE0001109A5E0B0E00E949D209B01AC01220FCC
:103CF000331F441F551F280D311D411D511D2839EB
:103D000099E93907490799E15907A8F2C6609C2E3D
:103D1000D2CFAEEF8A1206C0C3FD3CC09C2E689481
:103D200093F8C9CFDF7DD534A9F580818D3239F480
:103D3000C061DF011296818162E070E006C0DF01A0
:103D40008B32C1F3119661E070E080535D01A61AD9
:103D5000B70A8A30F8F4E0E8CE16ECE0DE065CF450
:103D6000B601660F771F660F771FC60ED71ECC0CE5
:103D7000DD1CC80ED11C5D01FFEFAF1ABF0A8C918C
:103D800080538A30A8F1C4FF03C0D194C194D108F4
:103D90000C0D1D1DC1FF09C0E114F10431F081E0DB
:103DA000A81AB108D701AD92BC92CA01B9010E940C
:103DB0005C1FC370C33009F490584B015C0120E0D4
:103DC00030E0A9010E94571F882309F440C0C5E7CD
:103DD000D2E017FF05C0119501951109CDE5D2E09C
:103DE0006E01B8E1CB1AD10880E2E82EF12C0FC0A9
:103DF000D501B1CFFE0125913591459154910E1910
:103E00001F09C501B4010E94BD1F4B015C01D50112
:103E1000C4010E151F0574F72497F594E794CC168A
:103E2000DD06A9F78A2F880F8B2F881F8F3F49F057
:103E300020E030E0A901C501B4010E94571F8111A3
:103E400006C082E290E09093E0058093DF05C50113
:103E5000B401DF91CF911F910F91FF90EF90DF9010
:103E6000CF90BF90AF909F908F90089591110C9438
:103E70002A20803219F089508550C8F70895FB0137
:103E8000DC014150504088F08D9181341CF08B351D
:103E90000CF4805E659161341CF06B350CF4605E4F
:103EA000861B611171F3990B0895881BFCCF0E944A
:103EB000991F08F481E00895E89409C097FB3EF447
:103EC00090958095709561957F4F8F4F9F4F992367
:103ED000A9F0F92F96E9BB279395F69587957795E5
:103EE0006795B795F111F8CFFAF4BB0F11F460FFA5
:103EF0001BC06F5F7F4F8F4F9F4F16C0882311F0FD
:103F000096E911C0772321F09EE8872F762F05C010
:103F1000662371F096E8862F70E060E02AF09A95AB
:103F2000660F771F881FDAF7880F9695879597F9A0
:103F30000895990F0008550FAA0BE0E8FEEF16163A
:103F40001706E807F907C0F012161306E407F5078D
:103F500098F0621B730B840B950B39F40A2661F001
:103F6000232B242B252B21F408950A2609F4A140A4
:103F7000A6958FEF811D811D08950E94D01F0C947E
:103F800044200E94362038F00E943D2020F09523E6
:103F900011F00C942D200C94332011240C947820D3
:103FA0000E94552070F3959FC1F3950F50E0551F67
:103FB000629FF001729FBB27F00DB11D639FAA277E
:103FC000F00DB11DAA1F649F6627B00DA11D661FCD
:103FD000829F2227B00DA11D621F739FB00DA11DEE
:103FE000621F839FA00D611D221F749F3327A00DA8
:103FF000611D231F849F600D211D822F762F6A2F44
:1040000011249F5750409AF0F1F088234AF0EE0FA8
:10401000FF1FBB1F661F771F881F91505040A9F7D5
:104020009E3F510580F00C942D200C9478205F3F2A
:10403000E4F3983ED4F3869577956795B795F79511
:10404000E7959F5FC1F7FE2B880F911D9695879589
:1040500097F9089599278827089597F99F6780E829
:1040600070E060E008959FEF80EC089500240A94CA
:104070001616170618060906089500240A94121643
:104080001306140605060895092E0394000C11F476
:10409000882352F0BB0F40F4BF2B11F460FF04C023
:1040A0006F5F7F4F8F4F9F4F089557FD9058440F7C
:1040B000551F59F05F3F71F04795880F97FB991F87
:1040C00061F09F3F79F08795089512161306140644
:1040D000551FF2CF4695F1DF08C0161617061806D1
:1040E000991FF1CF86957105610508940895E894AC
:1040F000BB2766277727CB0197F90895052E97FBF5
:104100001EF400940E94952057FD07D00E94B02015
:1041100007FC03D04EF40C949520509540953095B3
:1041200021953F4F4F4F5F4F089590958095709523
:1041300061957F4F8F4F9F4F08950E94D220A59F7A
:10414000900DB49F900DA49F800D911D1124089592
:10415000B7FF0C949D200E949D20821B930B089515
:10416000A1E21A2EAA1BBB1BFD010DC0AA1FBB1F7B
:10417000EE1FFF1FA217B307E407F50720F0A21BED
:10418000B30BE40BF50B661F771F881F991F1A945A
:1041900069F760957095809590959B01AC01BD0184
:1041A000CF010895A29FB001B39FC001A39F700DDE
:1041B000811D1124911DB29F700D811D1124911D2F
:1041C00008955058BB27AA270E94F9200C94442038
:1041D0000E94362038F00E943D2020F039F49F3FA5
:1041E00019F426F40C9433200EF4E095E7FB0C94BC
:1041F0002D20E92F0E94552058F3BA176207730744
:104200008407950720F079F4A6F50C9477200EF436
:10421000E0950B2EBA2FA02D0B01B90190010C01D6
:10422000CA01A0011124FF27591B99F0593F50F4EE
:10423000503E68F11A16F040A22F232F342F442746
:10424000585FF3CF469537952795A795F04053953E
:10425000C9F77EF41F16BA0B620B730B840BBAF00E
:104260009150A1F0FF0FBB1F661F771F881FC2F779
:104270000EC0BA0F621F731F841F48F4879577958D
:104280006795B795F7959E3F08F0B0CF9395880F47
:1042900008F09927EE0F9795879508950E9462215F
:1042A0000C9444200E943D2058F00E94362040F09B
:1042B00029F45F3F29F00C942D2051110C947820A3
:1042C0000C9433200E94552068F39923B1F35523B1
:1042D00091F3951B550BBB27AA2762177307840719
:1042E00038F09F5F5F4F220F331F441FAA1FA9F3AF
:1042F00035D00E2E3AF0E0E832D091505040E6959D
:10430000001CCAF72BD0FE2F29D0660F771F881FFD
:10431000BB1F261737074807AB07B0E809F0BB0BF0
:10432000802DBF01FF2793585F4F3AF09E3F510504
:1043300078F00C942D200C9478205F3FE4F3983EA5
:10434000D4F3869577956795B795F7959F5FC9F7ED
:10435000880F911D9695879597F90895E1E0660F6E
:10436000771F881FBB1F621773078407BA0720F0E7
:10437000621B730B840BBA0BEE1F88F7E095089550
:104380000E94C7216894B1110C94782008950E946E
:104390005D2088F09F5798F0B92F9927B751B0F05A
:1043A000E1F0660F771F881F991F1AF0BA95C9F7B9
:1043B00014C0B13091F00E947720B1E008950C94C0
:1043C0007720672F782F8827B85F39F0B93FCCF373
:1043D000869577956795B395D9F73EF49095809536
:1043E000709561957F4F8F4F9F4F08950E94991F41
:1043F00008F48FEF0895FA01EE0FFF1F30962105A4
:104400003105A1F16115710561F48038BFE39B07A7
:1044100049F168949038810561F08038BFEF9B07BF
:1044200041F099234AF5FF3FE1053105210519F1D6
:10443000E8940894E795D901AA2329F4AB2FBE2F5D
:10444000F85FD0F310C0FF5F70F4A695E0F7F7397E
:1044500050F019F0FF3A38F49F779F930DD00F90EA
:1044600007FC9058089546F00C94332060E070E00B
:1044700080E89FE308954FE79F775F934F933F93C3
:104480002F930E94FB222F913F914F915F910E94A9
:10449000BD1F0C9458220E94991F880B990B0895F8
:1044A00029F416F00C942D200C9477200C943320D2
:1044B0000E945D20A8F39638A0F707F80F92E894C1
:1044C0002BE33AEA48EB5FE70E94D31F0F920F926B
:1044D0000F924DB75EB70F920E944323E4EEF0E0D7
:1044E0000E948A224F915F91EF91FF91E595EE1F17
:1044F000FF1F49F0FE57E0684427EE0F441FFA956E
:10450000E1F74195550B0E94BD220F9007FE0C94D8
:10451000B1220895DF93CF931F930F93FF92EF92F1
:10452000DF927B018C01689406C0DA2EEF010E94B5
:10453000D01FFE01E894A5912591359145915591A3
:10454000A6F3EF010E94F920FE019701A801DA9479
:1045500069F7DF90EF90FF900F911F91CF91DF915E
:1045600008959B01AC0160E070E080E89FE30C944B
:104570004E210C942D200C9477230E945D20D8F3BB
:104580009923C9F3940F511DA3F39150504094F017
:1045900059F0882332F0660F771F881F91505040E2
:1045A000C1F79E3F51052CF7880F911D9695879571
:1045B00097F908955F3FACF0983E9CF0BB27869535
:1045C00077956795B79508F4B1609395C1F7BB0FE0
:1045D00058F711F460FFE8CF6F5F7F4F8F4F9F4F09
:1045E000E3CF0C94782016F00C9477230C943320AE
:1045F00068940C942D200E945D20A8F39923C1F3A8
:10460000AEF3DF93CF931F930F93FF92C92FDD2754
:1046100088232AF02197660F771F881FDAF720E09A
:1046200030E040E85FEB9FE3883920F0803E38F0CF
:1046300021968F770E94E220ECE0F1E004C00E9416
:10464000E220E9E3F1E00E948A228B01BE01EC0145
:10465000FB2E6F5771097595771F880B990B0E9478
:104660005E1F28E132E741E35FE30E94D01FAF2DD8
:104670009801AE01FF900F911F91CF91DF910E94A1
:10468000F9200C944420FA01DC01AA0FBB1F9B0106
:10469000AC01BF5728F4222733274427507820C085
:1046A000B75190F4AB2F0024469537952795011C00
:1046B000A395D2F3002071F0220F331F441FB3954E
:1046C000DAF30ED00C94E12061307105A0E88A077E
:1046D000B94630F49B01AC0166277727882790788C
:1046E000309621F0208331834283538308959F3F86
:1046F00031F0915020F4879577956795B795880F9D
:10470000911D9695879597F90895991B79E004C0B6
:10471000991F961708F0961B881F7A95C9F7809500
:104720000895EE0FFF1F881F8BBF0790F691E02DB5
:1047300019940F931F93CF93DF938230910510F458
:1047400082E090E0E091E305F091E40530E020E0C4
:10475000B0E0A0E0309799F42115310509F44AC082
:10476000281B390B24303105D8F58A819B816115CE
:10477000710589F1FB0193838283FE0111C04081A1
:1047800051810281138148175907E0F048175907F2
:1047900099F4109761F012960C93129713961C934C
:1047A0003296CF01DF91CF911F910F910895009321
:1047B000E3051093E405F4CF2115310551F04217BC
:1047C000530738F0A901DB019A01BD01DF01F801AF
:1047D000C1CFEF01F9CF9093E4058093E305CDCFEE
:1047E000FE01E20FF31F8193919322503109398327
:1047F0002883D7CF2091E1053091E205232B41F4A6
:1048000020910B0230910C023093E2052093E105D8
:104810002091090230910A022115310541F42DB78A
:104820003EB740910D0250910E02241B350BE091D2
:10483000E105F091E205E217F307A0F42E1B3F0B10
:104840002817390778F0AC014E5F5F4F2417350702
:1048500048F04E0F5F1F5093E2054093E1058193AE
:1048600091939FCFF0E0E0E09CCFCF93DF93009750
:10487000E9F0FC01329713821282A091E305B09116
:10488000E405ED0130E020E01097A1F420813181B2
:10489000820F931F2091E1053091E2052817390717
:1048A00009F061C0F093E205E093E105DF91CF915B
:1048B0000895EA01CE17DF07E8F54A815B819E0182
:1048C00041155105B1F7E901FB83EA8349915991FB
:1048D000C40FD51FEC17FD0761F48081918102960A
:1048E000840F951FE90199838883828193819B833B
:1048F0008A83F0E0E0E012968D919C9113970097E7
:10490000B9F52D913C911197CD010296820F931F1D
:104910002091E1053091E2052817390739F63097E3
:1049200051F51092E4051092E305B093E205A093CF
:10493000E105BCCFD383C28340815181840F951F91
:10494000C817D90761F44E5F5F4F88819981480F7E
:10495000591F518340838A819B81938382832115D0
:10496000310509F0B0CFF093E405E093E3059ECF65
:10497000FD01DC01C0CF13821282D7CF4F925F922C
:104980006F927F928F929F92AF92BF92CF92DF925F
:10499000EF92FF920F931F93CF93DF938C010097B9
:1049A00099F4CB01DF91CF911F910F91FF90EF9080
:1049B000DF90CF90BF90AF909F908F907F906F903F
:1049C0005F904F900C949923FC01E60FF71F9C0118
:1049D00022503109E217F30708F4AEC0D901CD9196
:1049E000DC911197C617D70720F1C530D10578F0B3
:1049F000CE0104978617970750F0C61BD70B229756
:104A0000C193D1936D937C93CF010E943524C8014B
:104A1000DF91CF911F910F91FF90EF90DF90CF909A
:104A2000BF90AF909F908F907F906F905F904F90CE
:104A300008955B01AC1ABD0A4C018C0E9D1EA0911D
:104A4000E305B091E405512C412CF12CE12C109799
:104A500031F58091E1059091E2058815990509F0FD
:104A60005CC04616570608F058C080910902909124
:104A70000A02009741F48DB79EB740910D02509104
:104A80000E02841B950BE817F90708F055C0F09348
:104A9000E205E093E105F90171836083B8CF8D9160
:104AA0009C91119712966C90129713967C90139785
:104AB000A815B90559F56C0142E0C40ED11CCA1401
:104AC000DB0420F1AC014A195B09DA011296159753
:104AD00080F06282738251834083D9016D937C930D
:104AE000E114F10471F0D7011396FC93EE93129741
:104AF0008ECF22968C0F9D1FF90191838083F30145
:104B0000EFCFF093E405E093E30581CF4816590613
:104B100008F42C017D01D3019ACFCB010E94992387
:104B20007C01009749F0AE01B8010E949F25C801A1
:104B30000E94352487016BCF10E000E068CFFB01B5
:104B4000DC0102C001900D9241505040D8F7089509
:104B5000FB01DC0101900D920020E1F7089511E0C6
:104B6000CEECD1E000E006C0802FFE010E94912330
:104B70002196011DCF3CD10780E00807A9F7F894E2
:024B8000FFCF65
:104B8200FFFFFFFFFFFFFFFFFF0000E505800000C2
:104B9200000000A1020B023802F302690247025B25
:104BA2000200000000830A3C0ACB0A190A02022909
:104BB2000A1A0A00000000CB0D0B02CB0AFC076E9A
:104BC200616E00696E66006F766600302E3030309E
:0C4BD200303030303030303030303000C7
:00000001FF
