:100000000C94C2000C94EA000C94EA000C94EA00F0
:100010000C94EA000C94EA000C94EA000C94AB0CEB
:100020000C94EA000C94EA000C94EA000C94C80EBC
:100030000C94EA000C94EA000C94EA000C94EA0098
:100040000C945F0D0C94EA000C942D0D0C94070D8C
:100050000C94EA000C94EA000C94EA000C94EA0078
:100060000C94A90D0C94EA0007634236B79BD8A7FD
:100070001A39685618AEBAAB558C1D3CB7CC5763CD
:10008000BD6DEDFD753EF6177231BF000000803F7B
:1000900008000000BE922449123EABAAAA2ABECD97
:1000A000CCCC4C3E00000080BEABAAAAAA3E000009
:1000B0000000BF000000803F000000000008417801
:1000C000D3BB4387D1133D190E3CC3BD4282AD2B38
:1000D0003E68EC8276BED98FE1A93E4C80EFFFBE30
:1000E00001C4FF7F3F00000000004E414E494E49D1
:1000F0005459494E46CDCCCC3D0AD7233C17B7D1F5
:100100003877CC2B329595E6241FB14F0A0000209A
:10011000410000C84200401C4620BCBE4CCA1B0E19
:100120005AAEC59D7400000000240027002A00007C
:10013000000000250028002B00020000000800023B
:1001400001000003040700000000000000000000A0
:10015000000023002600290004040404040404040D
:100160000202020202020303030303030102040862
:100170001020408001020408102001020408102011
:10018000C90F7A1911241FBECFEFD8E0DEBFCDBF53
:1001900011E0A0E0B1E0E4E5F3E402C005900D92C7
:1001A000AC35B107D9F724E0ACE5B1E001C01D9250
:1001B000A736B207E1F710E0C1ECD0E004C0219708
:1001C000FE010E94A51FC03CD107C9F70E94DD10A7
:1001D0000C949D210C9400008091980290919902BA
:1001E000891B990B089508950895AF92BF92CF92FD
:1001F000DF92EF92FF920F931F93CF93DF936C01E7
:100200007B018B01040F151FEB015E01AE18BF08C7
:10021000C017D10759F06991D601ED91FC91019079
:10022000F081E02DC6010995892B79F7C501DF9191
:10023000CF911F910F91FF90EF90DF90CF90BF90E3
:10024000AF900895FC01538D448D252F30E0842F0D
:1002500090E0821B930B541710F0CF9608950197EE
:100260000895FC01918D828D981761F0A28DAE0FDB
:10027000BF2FB11D5D968C91928D9F5F9F73928F62
:1002800090E008958FEF9FEF0895FC01918D828D8E
:10029000981731F0828DE80FF11D858D90E008955B
:1002A0008FEF9FEF0895FC01918D228D892F90E0B3
:1002B000805C9F4F821B91098F73992708958AE074
:1002C00093E00E94530121E0892B09F420E0822F62
:1002D000089580E090E0892B29F00E945F01811150
:1002E0000C9400000895FC01A48DA80FB92FB11D36
:1002F000A35ABF4F2C91848D90E001968F7399275C
:10030000848FA689B7892C93A089B1898C91837039
:1003100080648C93938D848D981306C00288F38932
:10032000E02D80818F7D80830895EF92FF920F935F
:100330001F93CF93DF93EC0181E0888F9B8D8C8D91
:1003400098131AC0E889F989808185FF15C09FB785
:10035000F894EE89FF896083E889F9898081837048
:10036000806480839FBF81E090E0DF91CF911F91F7
:100370000F91FF90EF900895F62E0B8D10E00F5F18
:100380001F4F0F731127E02E8C8D8E110CC00FB6EE
:1003900007FCFACFE889F989808185FFF5CFCE0186
:1003A0000E947301F1CFEB8DEC0FFD2FF11DE35A8D
:1003B000FF4FF0829FB7F8940B8FEA89FB89808109
:1003C0008062CFCF682F8AE093E00C949501CF93A1
:1003D000DF93EC01888D8823B9F0AA89BB89E8896D
:1003E000F9898C9185FD03C0808186FD0DC00FB613
:1003F00007FCF7CF8C9185FFF2CF808185FFEDCF91
:10040000CE010E947301E9CFDF91CF91089583302F
:1004100081F028F4813099F08230A9F00895873076
:10042000A9F08830C9F08430B1F4809180008F7DCC
:1004300003C0809180008F7780938000089584B5F9
:100440008F7784BD089584B58F7DFBCF8091B000F8
:100450008F778093B00008958091B0008F7DF9CFA1
:100460001F93CF93DF93282F30E0F901E65CFE4F16
:100470008491F901E459FE4FD491F901E85AFE4FF5
:10048000C491CC23A9F0162F81110E940702EC2FF2
:10049000F0E0EE0FFF1FE15DFE4FA591B4918FB725
:1004A000F894EC91111108C0D095DE23DC938FBF36
:1004B000DF91CF911F910895DE2BF8CF909100012D
:1004C00089130BC0E9E3F1E0E4919FEF9093000101
:1004D000E13049F028F0E23061F060E00C94300245
:1004E00010926E00FACF90916F009D7F90936F00F5
:1004F000F4CF909170009D7F9093700091E0909365
:10050000B0009091B100987F94609093B1001092E8
:10051000B300E3CFCF93DF9390E0FC01E459FE4FAB
:100520002491885A9E4FFC0184918823C9F090E061
:10053000880F991FFC01EB5DFE4FA591B491FC0162
:10054000E15DFE4FC591D49161110DC09FB7F89444
:100550008C91209582238C938881282328839FBFA8
:10056000DF91CF910895623051F49FB7F8943C9198
:10057000822F809583238C93E8812E2BEFCF8FB72A
:10058000F894EC912E2B2C938FBFEACF4F925F9271
:100590006F927F928F929F92AF92BF92CF92DF9293
:1005A000EF92FF920F931F93CF93DF9300D000D071
:1005B0001F92CDB7DEB78B0129013A01909100015E
:1005C0008917C9F09F3F09F47EC00F900F900F90DC
:1005D0000F900F90DF91CF911F910F91FF90EF90AF
:1005E000DF90CF90BF90AF909F908F907F906F9053
:1005F0005F904F900895E9E3F1E094919D8397FD1A
:10060000E4CF61E00E948A028D81882321F09D81E0
:10061000923009F04AC14801B12CA12C60E072E18E
:100620008AE790E0A50198010E945B1C29833A8328
:100630004B835C8369017A0181E0C81AD108E10823
:10064000F1089FEFC916D104E104F10409F00CF49C
:1006500001C160E472E48FE090E0A50198010E947E
:100660005B1C69017A0181E0C81AD108E108F10830
:100670009D81923009F0A2C08FEFC816D104E10429
:10068000F10409F00CF4E6C160E970ED83E090E05C
:10069000A50198010E945B1C69017A0191E0C91AC9
:1006A000D108E108F1088FEFC816D104E104F10484
:1006B00011F00CF07FC183E09091B100987F892BFD
:1006C0008093B100CFC080930001E9E3F1E0949101
:1006D0009D839F3F09F479CF913041F150F09230E2
:1006E00009F446C09D8197FD70CF61E00E948A02A7
:1006F0008ECF14BC15BC94B5926094BD95B5916035
:1007000095BD282F30E0F901E85AFE4FE491F0E062
:10071000EE0FFF1FE15DFE4F45915491F901E45941
:10072000FE4FE491E093A8011D826BCF10928000F0
:100730001092810090918100986090938100909137
:100740008100916090938100282F30E0F901E85AF0
:10075000FE4FE491F0E0EE0FFF1FE15DFE4F45918B
:100760005491F901E459FE4FE491E093A70149CF78
:100770001092B0001092B1009091B00092609093EE
:10078000B0009091B10091609093B100282F30E0BB
:10079000F901E85AFE4FE491F0E0EE0FFF1FE15D32
:1007A000FE4F459154915093B2014093B101F9012C
:1007B000E459FE4FE491E093B30123CF9FEFC916B4
:1007C000D104E104F10409F00CF46DC068E478EEA2
:1007D00081E090E0A50198010E945B1C69017A010B
:1007E00081E0C81AD108E108F1089D81992309F434
:1007F000FAC08FEFC816D104E104F10411F00CF037
:10080000FBC0EFC064E274EF80E090E0A5019401CA
:100810000E945B1C69017A0181E0C81AD108E108D5
:10082000F10885E09FEFC916D104E104F10409F055
:1008300008F442CF62E17AE780E090E0A5019401FC
:100840000E945B1C69017A0181E0C81AD108E108A5
:10085000F108E5C081E09D8191112ECF95B5987F7B
:10086000892B85BD2FEF3FEFA9014114510461048D
:10087000710409F043C09D81913009F45EC092304B
:1008800009F46DC09111A1CEC7BC2093AD01309386
:10089000AE014093AF015093B00180916E00826031
:1008A00080936E0092CE82E0D6CFB12CA12C60E076
:1008B00072E18AE790E0A50198010E945B1C690142
:1008C0007A0181E0C81AD108E108F108C114D10405
:1008D00091E0E906F10404F591E08D81813011F693
:1008E00080918100887F892B809381002FEF3FEFDB
:1008F000A9014114510461047104F9F0D801AA0F4F
:10090000BB1FA30192010E947A1C28EE33E040E055
:1009100050E00E94C41CAFCF68E478EE81E090E024
:10092000A50198010E945B1C69017A0181E0C81A47
:10093000D108E108F10893E0D0CFD0928900C092AD
:1009400088002093A9013093AA014093AB015093F2
:10095000AC0180916F00826080936F0036CEC092B0
:10096000B3002093B4013093B5014093B601509386
:10097000B7018091700082608093700026CE84E081
:100980009FEFC916D104E104F10409F008F466CF21
:10099000C980DA80EB80FC808AE0F594E794D794F4
:1009A000C7948A95D1F781E0C81AD108E108F10807
:1009B00085E054CF68E478EE81E090E0A5019801ED
:1009C0000E945B1C69017A0181E0C81AD108E10824
:1009D000F1089FEFC916D104E104F10411F00CF005
:1009E00011CF84E069CE83E09FEFC916D104E10402
:1009F000F10409F00CF432CF62E17AE780E090E094
:100A0000A50194010E945B1C69017A0181E0C81A6A
:100A1000D108E108F1089D81992309F4B0CF86E05F
:100A20009FEFC916D104E104F10409F008F444CEA3
:100A3000C980DA80EB80FC809AE0F594E794D79443
:100A4000C7949A95D1F781E0C81AD108E108F10856
:100A500087E032CE82E030CE3FB7F8948091A30198
:100A60009091A401A091A501B091A60126B5A89BE3
:100A700005C02F3F19F00196A11DB11D3FBFBA2F30
:100A8000A92F982F8827BC01CD01620F711D811DF0
:100A9000911D42E0660F771F881F991F4A95D1F775
:100AA00008958F929F92AF92BF92CF92DF92EF9272
:100AB000FF926B017C010E942C054B015C01C1146B
:100AC000D104E104F104B9F00E942C0568197909F8
:100AD0008A099B09683E73408105910580F321E0F6
:100AE000C21AD108E108F10888EE880E83E0981E4A
:100AF000A11CB11CE4CFFF90EF90DF90CF90BF908E
:100B0000AF909F908F900895089520917F01260FB8
:100B10003327331F21323105ECF42091E002FC0130
:100B200090E080E0243069F082E00895A0917F0198
:100B30002191AC01415A5E4FA40FB52FB11D2C93EA
:100B40000196861798F380917F01680F60937F016B
:100B500080E0089581E008951092E00281E08093A2
:100B6000DF021092BA0261E082E10E94300261E08D
:100B700083E10E943002E9EBF0E080818E7F808388
:100B800080818D7F808388E48093B80085E48093A2
:100B9000BC000895CF93DF9391E090935E0188238A
:100BA000B9F0C091B800D091BA008091BC008A7BA6
:100BB0008093BC0060E082E10E94300260E083E14B
:100BC0000E9430020E94AC05D093BA00C093B800D6
:100BD000DF91CF910895CF92DF92EF92FF920F9322
:100BE0001F93CF93DF93D091090381E0D13208F0B6
:100BF0009CC0C09108030E942C056B017C01809170
:100C0000E00281116CC082E08093E00281E0809379
:100C1000DF028FEF8093DE021092DD02D093DC02C0
:100C2000A8EEB2E0ECEBF2E080E0D8138DC01092B9
:100C3000BB028091BB02CC0FC82BC093BB0280913A
:100C4000BA02813009F084C01092BA020E942C05C9
:100C50006B017C018091BB028093BB008091E2021A
:100C60009091E302A091E402B091E502892B8A2BD6
:100C70008B2BA1F00E942C050091E2021091E3025F
:100C80002091E4023091E5026C197D098E099F09DB
:100C9000061717072807390708F442C08091BC00DF
:100CA00083FDD8CF85EC8093BC000E942C056B019E
:100CB0007C018091E002823009F44CC08091DE0218
:100CC0008F3F09F469C08091DE02803209F466C06A
:100CD0008091DE02803309F463C084E026C08091F5
:100CE000E2029091E302A091E402B091E502892B27
:100CF0008A2B8B2B09F483CF0E942C050091E202F2
:100D00001091E3022091E4023091E5026C197D0913
:100D10008E099F09061717072807390708F06FCFB4
:100D20008091E1020E94CA0585E01092E7021092CC
:100D300009031092E602DF91CF911F910F91FF906E
:100D4000EF90DF90CF9008959D9191938F5F6DCF3D
:100D500085EEA9CF8091E2029091E302A091E40296
:100D6000B091E502892B8A2B8B2B09F4A2CF0E942C
:100D70002C050091E2021091E3022091E4023091EF
:100D8000E5026C197D098E099F09061717072807C8
:100D9000390708F08ECFC4CF80E0C7CF82E0C5CF3F
:100DA00083E0C3CFCF92DF92EF92FF920F931F9316
:100DB000CF93DF93D82FC62F613208F098C00E94DE
:100DC0002C056B017C018091E00281116BC081E0F8
:100DD0008093E0028093DF029FEF9093DE021092F7
:100DE000DD029C0F9093DC028093BB028091BB02DA
:100DF000DD0FD82BD093BB028091BA02813009F06D
:100E000078C01092BA020E942C056B017C0180917F
:100E1000BB028093BB008091E2029091E302A0911B
:100E2000E402B091E502892B8A2B8B2BA1F00E9462
:100E30002C050091E2021091E3022091E40230912E
:100E4000E5026C197D098E099F0906171707280707
:100E5000390708F448C08091BC0083FDD8CF85ECE9
:100E60008093BC000E942C056B017C018091E00204
:100E7000813009F440C08091DD028C1710F4C091DC
:100E8000DD02ECEBF2E0AAE9B2E080E08C1355C0A1
:100E90008C2FDF91CF911F910F91FF90EF90DF90FA
:100EA000CF9008958091E2029091E302A091E40234
:100EB000B091E502892B8A2B8B2B09F484CF0E94F9
:100EC0002C050091E2021091E3022091E40230919E
:100ED000E5026C197D098E099F0906171707280777
:100EE000390708F070CF8091E1020E94CA05C0E086
:100EF000CFCF85EEB5CF8091E2029091E302A09131
:100F0000E402B091E502892B8A2B8B2B09F4AECF3A
:100F10000E942C050091E2021091E3022091E4026C
:100F20003091E5026C197D098E099F090617170794
:100F30002807390708F09ACFD6CF91919D938F5FFC
:100F4000A5CF0895E091990280919802E81730F4B6
:100F5000F0E0E656FD4F808190E008958FEF9FEF1F
:100F6000089590919902809198022FEF3FEF981782
:100F700048F4E92FF0E0E656FD4F208130E09F5F16
:100F800090939902C9010895CF92DF92EF92FF9258
:100F90000F931F93CF93DF937C01CB018A012091A4
:100FA000E602222389F0EB016B01C40ED51ECC159D
:100FB000DD0569F06991D701ED91FC910190F08117
:100FC000E02DC7010995F3CF642F0E948505C80164
:100FD000DF91CF911F910F91FF90EF90DF90CF9015
:100FE000089521E02093E60227E72093080310925A
:100FF000E7021092090342E050E0BC0187EA93E067
:101000000E94C4070E94EB05982F80933A0481E068
:10101000911180E00895CF93DF931F92CDB7DEB793
:1010200069832091E6022223F9F0209109032032FE
:1010300058F021E030E0FC013383228390E080E02F
:101040000F90DF91CF9108958091E702E82FF0E0B3
:10105000E851FD4F998190838F5F8093E7028093E1
:10106000090381E090E0ECCF61E0CE0101960E949F
:101070008505F7CFCF93C82F81E08093E60283E503
:10108000809308031092E702109209036DE287EA49
:1010900093E00E940B086C2F87EA93E00E940B08F4
:1010A000CF910C94EB0590E080E008958DEF90E0F7
:1010B0000E94E2018EEF90E00C94E2010F931F93E7
:1010C000CF93DF93D0E0C0E0FE01E65CFE4F849159
:1010D000FE01E459FE4F0491FE01E85AFE4F1491BF
:1010E000112309F44BC081110E940702E12FF0E0A7
:1010F000EE0FFF1FE25BFE4FA591B491EC91E02350
:1011000081E090E009F480E00E94E2012196CE3077
:10111000D105D1F68EEF90E00E94E201C0E08C2F65
:10112000806480937C0080917A00806480937A0050
:1011300080917A0086FDFCCF8091780060917900E3
:10114000762F682F072E000C880B990B0E943B1BF3
:1011500024E13EEA43EA50E40E94621D0E94D41D4D
:10116000CB010E94E201CF5FC630C9F68EEF90E05E
:10117000DF91CF911F910F910C94E20180E090E0FC
:10118000C3CFEF92FF920F931F93CF93DF938C0106
:10119000F62E81E08093E60287E7809308031092A1
:1011A000E70210920903F801608187EA93E00E9448
:1011B0000B080E94EB0580933A04811124C0CF2DC7
:1011C0000F2C000CDD0B6F2D87E70E94D2061092CA
:1011D00099028093980290E0C817D907E9F7E02EAA
:1011E000C02FD12F87EA93E00E94B10789938C2FFB
:1011F0008E198F15BCF381E0DF91CF911F910F9174
:10120000FF90EF90089580E0F7CF0F931F93CF9357
:10121000DF9300D0CDB7DEB78B01898362E0CE01CA
:1012200001960E94C108882381F089819A819827BC
:1012300089279827F8019183808381E00F900F9090
:10124000DF91CF911F910F910895F80111821082C3
:10125000F5CF0F931F93CF93DF9300D0CDB7DEB7B9
:101260008B01898362E0CE0101960E94C108882328
:1012700081F089819A81982789279827F80191839D
:10128000808381E00F900F90DF91CF911F910F919C
:101290000895F80111821082F5CFCF93DF93EC010E
:1012A00060E08E810E94300261E08E810E943002F7
:1012B00060E08E810E9430028BE891E00197F1F7A7
:1012C000DF91CF910895CF92DF92EF92FF920F932B
:1012D0001F93CF93DF936C017C0187E0E80EF11C34
:1012E000D0E0C0E0062F10E0B8010C2E02C07595CA
:1012F00067950A94E2F76170F70181917F010E947E
:1013000030022196C430D10579F7C601DF91CF9123
:101310001F910F91FF90EF90DF90CF900C944D09AB
:10132000CF92DF92EF92FF920F931F93CF93DF93B1
:10133000EC01F62E642F8C810E9430028D818F3F4C
:1013400019F060E00E9430020F2D10E08F8584FFBD
:1013500025C06E0187E0C80ED11CF12CE12CB8012C
:101360000E2C02C0759567950A94E2F76170F6013C
:1013700081916F010E943002FFEFEF1AFF0A88E0AF
:10138000E816F10461F7CE01DF91CF911F910F9123
:10139000FF90EF90DF90CF900C944D09B80184E05E
:1013A000759567958A95E1F7CE010E9463096F2DC7
:1013B000CE01DF91CF911F910F91FF90EF90DF90C1
:1013C000CF900C94630940E0682F88ED93E00C9473
:1013D0009009CF93DF93623028F09091E7039860F3
:1013E0009093E7036093EB031092EC0390E49093E7
:1013F000ED038093EE03805C8093EF0361E08091C6
:10140000DC030E948A028091DD038F3F19F061E0C6
:101410000E948A0261E08091DE030E948A02C8ED88
:10142000D3E09E01285D33408091E70384FD0BC02B
:1014300084E090E021962817390744F461E08E811A
:101440000E948A02EECF88E090E0F4CF8BE39DE02B
:101450000197F1F760E08091DC030E94300260E0C8
:101460008091DE030E9430028091DD038F3F19F0EE
:1014700060E00E9430028091E70384FD39C063E0A0
:1014800088ED93E00E946309CBE4D6E4CE01019796
:10149000F1F763E088ED93E00E9463092197F1F78B
:1014A00063E088ED93E00E94630983E592E0019791
:1014B000F1F762E088ED93E00E9463098091E70311
:1014C00080620E94E30984E08093E8038CE00E943C
:1014D000E30981E00E94E3098BE39FE10197F1F7C3
:1014E00082E08093E90386E0DF91CF910C94E309D9
:1014F00080620E94E3098BE496E40197F1F7809102
:10150000E70380620E94E30983E592E00197F1F727
:101510008091E70380620E94E309D0CF41E00E94FE
:10152000900981E090E00895FB0101900020E9F727
:101530003197AF01461B570BDC01ED91FC91028006
:10154000F381E02D09948F929F92AF92BF920F93F7
:101550001F93CF93DF93CDB7DEB7A1970FB6F89463
:10156000DEBF0FBECDBF19A2423008F44AE08E01A3
:101570000F5D1F4F842E912CB12CA12CA50194013D
:101580000E94C41CE62FB901CA01EA3004F5E05DEF
:10159000D801EE938D01232B242B252B79F790E096
:1015A00080E0109729F0BD018AE093E00E94940A40
:1015B000A1960FB6F894DEBF0FBECDBFDF91CF91DD
:1015C0001F910F91BF90AF909F908F900895E95C0D
:1015D000DFCFCF92DF92EF92FF92CF93DF936B0139
:1015E0007C016DE28AE093E00E949501EC016627A0
:1015F0007727CB016C197D098E099F094AE00E946B
:10160000A30A8C0F9D1FDF91CF91FF90EF90DF9089
:10161000CF900895BC01990F880B990B97FD0C94FE
:10162000E90A4AE00C94A30A4F925F926F927F926C
:101630008F929F92AF92BF92CF92DF92EF92FF92E2
:101640000F931F93CF936B017C01742EAC019B0110
:101650000E945F1E6FE371E0811126C046015701B1
:10166000E894B7F82FEF3FEF4FE75FE7C501B4010C
:101670000E945F1E81110CC02FEF3FEF4FE75FE725
:10168000C501B4010E94341B63E471E0181664F0D4
:101690002FEF3FEF4FE75FE4C701B6010E940A1E3C
:1016A0001816ACF467E471E08AE093E0CF911F91E3
:1016B0000F91FF90EF90DF90CF90BF90AF909F90F1
:1016C0008F907F906F905F904F900C94940A2FEFC3
:1016D0003FEF4FE75FECC701B6010E94341B87FD67
:1016E000E1CF20E030E0A901C701B6010E94341B20
:1016F00010E000E087FF0AC06DE28AE093E00E94FC
:1017000095018C01F7FAF094F7F8F094C0E060E0EE
:1017100070E080E09FE37C1641F020E030E040E2A2
:1017200051E40E94621DCF5FF6CFA70196010E948F
:10173000F61C2B013C010E94DB1D4B015C014AE0C1
:101740000E94A30A7C01E00EF11ECC23C1F1C50169
:10175000B4010E94391B9B01AC01C301B2010E947C
:10176000F51C4B015C016EE28AE093E00E9495015A
:10177000E80EF91EC15018F120E030E040E251E4DB
:10178000C501B4010E949A1B2B013C010E94DB1D84
:101790004B01B12CA12C4AE0C501B4010E94A30A5F
:1017A000E80EF91EC501B4010E94391B9B01AC0172
:1017B000C301B2010E94F51C4B015C01DBCFC701E4
:1017C000CF911F910F91FF90EF90DF90CF90BF903E
:1017D000AF909F908F907F906F905F904F90089503
:1017E00085ED8093BC008091E2029091E302A0918C
:1017F000E402B091E5020796A11DB11D23E0B69564
:10180000A795979587952A95D1F72091BC0024FD3F
:1018100003C01092E00208954091E2025091E30269
:101820006091E4027091E502452B462B472B69F34A
:101830000097A105B10541F025E32A95F1F70000D5
:101840000197A109B109E1CF8091E1020C94CA0589
:10185000EF92FF920F931F93CF93DF937C01C09180
:10186000BC019091BD0102ED11E030E020E070E09C
:1018700060E042E050E080E0F801A191B1918F0179
:10188000AF3FB10541F1AE3FB10529F46F5F7F4F26
:101890004F5F5F4FF1CF6E157F05D1F7811102C009
:1018A000C42F952FE0915F04F09160042E173F073D
:1018B00030F4E0915B04F0915C04309749F41092AD
:1018C0005C01ECE5F1E0A0832F5F3F4F81E0E0CFCA
:1018D000E20FF31FF8CFC093BC019093BD0180913C
:1018E0005F04909160042817390740F480915B04ED
:1018F00090915C04280F391F892B21F410925C0110
:101900002CE531E0F9011082C0915B04D0915C04B8
:1019100060E070E0CB01209719F0CE010E9487199A
:101920007093BF016093BE0160E070E0CB0120972F
:1019300019F0CE010E9483196093C0017093C10118
:101940008093C2019093C301DF91CF911F910F91BA
:10195000FF90EF9008951F920F920FB60F921124EF
:101960002F933F934F935F936F937F938F939F93A7
:10197000AF93BF93EF93FF938091B4019091B50122
:10198000A091B601B091B701892B8A2B8B2BD1F195
:101990009091B301E091B101F091B201808189276A
:1019A00080838091B4019091B501A091B601B0916E
:1019B000B701181619061A061B069CF48091B4018B
:1019C0009091B501A091B601B091B7010197A1091D
:1019D000B1098093B4019093B501A093B601B0937F
:1019E000B701FF91EF91BF91AF919F918F917F913F
:1019F0006F915F914F913F912F910F900FBE0F907C
:101A00001F901895809100010E945E02EACF1F92FC
:101A10000F920FB60F9211242F933F934F935F9322
:101A20006F937F938F939F93AF93BF93EF93FF93A6
:101A30008AE093E00E947301FF91EF91BF91AF9113
:101A40009F918F917F916F915F914F913F912F91D6
:101A50000F900FBE0F901F9018951F920F920FB608
:101A60000F9211242F938F939F93EF93FF93E09105
:101A70001A03F0911B038081E0912003F091210370
:101A800082FD1BC09081809123038F5F8F73209113
:101A90002403821741F0E0912303F0E0E65FFC4F5E
:101AA000958F80932303FF91EF919F918F912F91B9
:101AB0000F900FBE0F901F9018958081F4CF1F924A
:101AC0000F920FB60F9211242F933F938F939F93F2
:101AD000AF93BF938091B8019091B901A091BA01E1
:101AE000B091BB013091A20123E0230F2D3758F5AF
:101AF0000196A11DB11D2093A2018093B80190937E
:101B0000B901A093BA01B093BB018091A301909158
:101B1000A401A091A501B091A6010196A11DB11D3E
:101B20008093A3019093A401A093A501B093A60173
:101B3000BF91AF919F918F913F912F910F900FBEC9
:101B40000F901F90189526E8230F0296A11DB11D36
:101B5000D2CF1F920F920FB60F9211242F933F9363
:101B60004F935F936F937F938F939F93AF93BF93A5
:101B7000EF93FF938091B900887F803609F44AC0C3
:101B8000F0F5883209F4A7C018F5803109F49BC03C
:101B9000B8F4882309F4F9C0883009F494C0FF919F
:101BA000EF91BF91AF919F918F917F916F915F91D5
:101BB0004F913F912F910F900FBE0F901F9018954E
:101BC000883109F488C0803251F78093DE0214C056
:101BD000803409F49DC040F48033B9F38833F9F6BA
:101BE0008093DE0285ECB0C0803509F485C088356D
:101BF00009F496C0883499F60E94F00BD0CF88394A
:101C000009F48CC038F5883729F050F4883611F083
:101C1000803729F683E08093E0021092A10157C03B
:101C2000883809F47BC0803919F0803809F0B7CFC3
:101C30008091A101803208F071C0E091A10181E0A2
:101C40008E0F8093A1018091BB00F0E0EF57FE4F13
:101C500080833DC0803B39F0E0F4803A09F479C0DC
:101C6000883A09F09CCF84E08093E00210928001D2
:101C700010927F01E091C601F091C7010995809112
:101C80007F0181110FC081E080937F0110925F017D
:101C900009C0803C09F4A6CF883C09F4A3CF883B57
:101CA00009F07DCFE091800181E08E0F809380016B
:101CB000F0E0E15AFE4F80818093BB00909180015B
:101CC00080917F0129C08091BB028093BB0085EC8D
:101CD0008093BC0064CF9091DD028091DC02981764
:101CE00058F5E091DD0281E08E0F8093DD02F0E097
:101CF000E454FD4F8081E9CFE091DD0281E08E0F59
:101D00008093DD028091BB00F0E0E454FD4F8083BE
:101D10009091DD028091DC029817C8F285E8D8CF57
:101D2000E091DD0281E08E0F8093DD028091BB00A7
:101D3000F0E0E454FD4F80838091DF0281115CCF9D
:101D400081E08093BA0284EA8093BC001092E002A2
:101D500026CF85EC8093BC001092E0028091A10117
:101D6000803230F4E091A101F0E0EF57FE4F108295
:101D70006091A10170E0E091C401F091C50181E89A
:101D800091E009951092A1010ACF1092DE0234CFA2
:101D90001F920F920FB60F9211242F933F934F93E0
:101DA0005F936F937F938F939F93AF93BF93CF93E3
:101DB000DF93EF93FF9380915D01C091D703D0E053
:101DC00087FF24C0109285001092840080915D01ED
:101DD0008F5F80935D0180915D01082E000C990B4F
:101DE0008C179D0724F480915D018C30C4F18091A3
:101DF000840090918500049680349C4908F47AC050
:101E00008091840090918500049676C080915D0158
:101E1000082E000C990B8C179D07C4F6E0915D010C
:101E20008E2FEE0F990BFC01EE0FFF1FE80FF91F2D
:101E3000ED54FC4F808186FFC9CFE0915D018E2F6C
:101E4000EE0F990BFC01EE0FFF1FE80FF91FED5489
:101E5000FC4F808160E08F730E943002B7CF2091E9
:101E6000840030918500E0915D018E2FEE0F990B7B
:101E7000FC01EE0FFF1FE80FF91FED54FC4F8181AD
:101E80009281820F931F9093890080938800E09144
:101E90005D018E2FEE0F990BFC01EE0FFF1FE80F77
:101EA000F91FED54FC4F808186FF11C0E0915D0168
:101EB0008E2FEE0F990BFC01EE0FFF1FE80FF91F9D
:101EC000ED54FC4F808161E08F730E943002FF91DE
:101ED000EF91DF91CF91BF91AF919F918F917F91C2
:101EE0006F915F914F913F912F910F900FBE0F9087
:101EF0001F90189580E49CE9909389008093880056
:101F00008FEF80935D01E3CFCF92DF92EF92FF924C
:101F10000F931F93E82FF92F05C0015011092109D4
:101F2000310961F1908196239417B9F305C00150EE
:101F300011092109310911F1908196239413F7CFEA
:101F4000C12CD12CE12CF12C0AC08FEFC81AD80A71
:101F5000E80AF80A0C151D052E053F0579F0808169
:101F60008623841791F36C2D7D2D8E2D9F2D1F912F
:101F70000F91FF90EF90DF90CF90089560E070E0B8
:101F800080E090E01F910F91FF90EF90DF90CF9055
:101F9000089510920D0310920C0388EE93E0A0E0D8
:101FA000B0E080930E0390930F03A0931003B093BF
:101FB000110323E131E030930B0320930A0325EC56
:101FC00030E0309317032093160324EC30E0309375
:101FD00019032093180320EC30E030931B03209367
:101FE0001A0321EC30E030931D0320931C0322ECF4
:101FF00030E030931F0320931E0326EC30E0309333
:1020000021032093200310922303109224031092A3
:102010002503109226031092AA031092A90380931D
:10202000AB039093AC03A093AD03B093AE0385E2F2
:1020300091E09093A8038093A70310925C04109200
:102040005B0410925E0410925D0410926004109282
:102050005F0461E170E090E080E00E94D020009792
:1020600019F190935C0480935B0420E130E030939D
:102070005E0420935D0420915F0430916004232B63
:1020800011F4FC01108280E190E090936004809351
:102090005F046BE471E080915B0490915C040E94AA
:1020A000962116C020832EC080915B0490915C0421
:1020B000009711F00E94472010925C0410925B047C
:1020C0001092600410925F0410925E0410925D04FE
:1020D000EFE4F4E02FEF48EB5BE08091D7038C3026
:1020E00008F791E0980F9093D703808390E0DC018C
:1020F000AA0FBB1FA80FB91FAD54BC4F12965C931B
:102100004E931197339684E0EB35F80731F781E071
:1021100080933B0410923C0483EC9BEAA6E7BBE36C
:1021200080933D0490933E04A0933F04B0934004F9
:1021300088ED9BE6A6E7BBE38093410490934204BD
:10214000A0934304B093440482EF94EEA4E6BBE36F
:102150008093450490934604A0934704B0934804A9
:102160001092DB031092DA0387E391E09093D90396
:102170008093D80387E08093DC038FEF8093DD03A7
:1021800088E08093DE0389E08093DF038AE0809318
:10219000E0038BE08093E1038CE08093E2031092F4
:1021A000E3031092E4031092E5031092E603109209
:1021B000E70361E080E10C94E909CF93DF93CDB7A9
:1021C000DEB72B970FB6F894DEBF0FBECDBF789465
:1021D00084B5826084BD84B5816084BD85B582602C
:1021E00085BD85B5816085BD80916E0081608093DD
:1021F0006E00109281008091810082608093810046
:102200008091810081608093810080918000816055
:10221000809380008091B10084608093B1008091B0
:10222000B00081608093B00080917A0084608093D8
:102230007A0080917A00826080937A0080917A009F
:10224000816080937A0080917A00806880937A0020
:102250001092C100E0911A03F0911B0382E0808389
:10226000E0911603F09117031082E0911803F091AA
:102270001903108210922203E0911E03F0911F03B4
:1022800086E08083E0911C03F0911D0380818061D2
:102290008083E0911C03F0911D038081886080831E
:1022A000E0911C03F0911D03808180688083E091A0
:1022B0001C03F0911D0380818F7D808368E8262EAA
:1022C000312C8AE093E00E945301892BD1F31092C4
:1022D00097021092960210E000E08AE093E00E94DC
:1022E00053011816190634F10F3F110519F5009125
:1022F000CE011091CF01E090D001F090D101C80142
:102300000E94E201C7010E94E201093C110579F532
:10231000EF2809F009C10E945E0882E090E00E9467
:10232000E20181E090E00E94E20186E190E00E94FB
:10233000E201FAC08AE093E00E94530118161906E0
:1023400064F68AE093E00E9431018C01809196024C
:1023500090919702FC01EE0FFF1FE253FE4F118395
:10236000008301969093970280939602B6CF0A3C21
:10237000110509F05CC1E114F10419F542EDE42EF8
:1023800041E0F42E10E000E0D7018D919D917D0198
:102390008F3F910509F4C6C08E3F910519F40F5F78
:1023A0001F4FF2CF61E00115110541F060E00130EF
:1023B000110521F00230110539F762E00E948A020E
:1023C000E3CFB1E0EB16F104F9F432EDE32E31E0A6
:1023D000F32E10E000E0F701819191917F018F3F92
:1023E000910509F49FC08E3F910519F40F5F1F4FAF
:1023F000F2CF60E00115110521F00130110559F708
:1024000061E00E948A02E7CFF2E0EF16F10409F0E2
:1024100077C00EEC11E0D8011496ED90FC90BFEF60
:10242000EB16F10409F480C0F80166817781072E6C
:10243000000C880B990B0E943B1B29EC38EC48E4FC
:102440005FE30E94621D0E94D41D4B016B0161E09D
:102450008E2D0E948A028114910429F460E08E2D51
:102460000E9430022BC0FFEF8F16910411F461E03F
:10247000F6CFF701FF27E65CFE4FE491E33031F140
:1024800048F4E130B9F0E230E1F020E8C216D104BE
:1024900074F7E4CFE73021F1E83051F1E430A9F7E7
:1024A0008091800080628093800090928B00809267
:1024B0008A0004C084B5806884BD87BC0A5F1F4F52
:1024C000AACF84B5806284BD88BCF8CF809180009B
:1024D0008068809380009092890080928800EECF7F
:1024E0008091B00080688093B0008092B300E6CF06
:1024F0008091B00080628093B0008092B400DECF03
:1025000033E0E316F10429F590E080E00E94280C06
:102510006091BE017091BF01072E000C880B990BD2
:102520000E9451050E945E088EEF90E00E94E20139
:102530008FEF90E00E94E20180E090E0892B09F4A7
:10254000C0CE0E945F01882309F4B8CE0E9400002B
:10255000B5CE44E0E416F10499F490E080E00E94E6
:10256000280C8091BE019091BF0182309105D0F27C
:10257000880F991F880F991F05970197F1F7D2CF00
:1025800055E0E516F10489F40E945E082FB7F8942F
:102590006091B8017091B9018091BA019091BB012D
:1025A0002FBF4AE00E94A30ABFCF86E0E816F104DD
:1025B00029F40E945E080E942C05F3CF97E0E916EB
:1025C000F10459F5F090D20181E090E00E94280CCE
:1025D0000091BE011091BF0182E090E00E94280CA2
:1025E000E091BC01F091BD01EE0FFF1FE253FE4FE1
:1025F0008081918120E030E0A9018D3F910541F07B
:102600002091BE013091BF01032E000C440B550BED
:10261000B8018F2D0E94C60285CFA8E0EA16F1040A
:1026200009F082CF8091D2010E945E027BCF043DEF
:10263000110509F082C3E114F10409F045C01091BD
:10264000D20160E0812F0E94300283E090E0019788
:10265000F1F761E0812F0E94300283E290E0019760
:10266000F1F760E0812F0E9430028091D4019091B7
:10267000D5019927FC01E459FE4F6491FC01E85A09
:10268000FE4FE491F0E0EE0FFF1FE25BFE4F8591FD
:10269000949100E412E42FE030E0462F0E94840F72
:1026A0006B017C01C114D104E104F10439F0BFEFE6
:1026B000CB1ADB0AEB0AFB0AEFE0FE220E945E085F
:1026C0004AE0C701B6016ECFFAE0EF16F10409F057
:1026D00090C110929902109298021092E702109203
:1026E00009030E94AC0523EF30E03093C70120932B
:1026F000C60144EF50E05093C5014093C40160EF20
:1027000073E08AEA0E942909882309F46FC162EF05
:1027100073E08CEA0E942909882309F467C164EFF9
:1027200073E08EEA0E942909882309F45FC160E002
:1027300074E080EB0E940509882309F457C162E028
:1027400074E082EB0E940509882309F44FC164E01C
:1027500074E084EB0E940509882309F447C166EF01
:1027600073E086EB0E942909882309F43FC168EFD2
:1027700073E088EB0E942909882309F437C16AEFC6
:1027800073E08AEB0E942909882309F42FC16CEFBA
:1027900073E08CEB0E942909882309F427C16EEFAE
:1027A00073E08EEB0E942909882309F41FC1609110
:1027B000F4037091F503072E000C880B990B0E940F
:1027C0003B1B20E030E040EA5BE30E949A1B2B01B8
:1027D0003C01609100047091010490E080E00E944F
:1027E000391B2FE632E143E053E30E949A1B6B0151
:1027F0007C016091F6037091F703072E000C880BA3
:10280000990B0E943B1B20E030E048EC57E30E940C
:102810009A1B4B015C01609102047091030490E0EB
:1028200080E00E94391B2DEC3CEC4CE454E30E9408
:102830009A1B609306047093070480930804909396
:102840000904609104047091050490E080E00E9406
:10285000391B60930A0470930B0480930C049093CB
:102860000D046091FC037091FD03072E000C880B92
:10287000990B0E943B1B2AE037ED43EA5DE30E947F
:102880009A1B60930E0470930F048093100490932E
:1028900011046091FE037091FF03072E000C880B5A
:1028A000990B0E943B1B20E030E040E253E40E9481
:1028B000621D609312047093130480931404909328
:1028C00015046091F0037091F103072E000C880B42
:1028D000990B0E943B1B609316047093170480931E
:1028E0001804909319046091F2037091F303072E7A
:1028F000000C880B990B0E943B1B20E030E040EA63
:102900005CE30E949A1B60931A0470931B048093EB
:102910001C0490931D046091F8037091F903072E35
:10292000000C880B990B0E943B1B20E030E048E430
:102930005AE30E949A1B60931E0470931F048093B5
:1029400020049093210420E030E040E057E4C701E8
:10295000B6010E949A1B6093220470932304809313
:10296000240490932504A7019601C301B2010E949B
:102970009A1B6093260470932704809328049093F5
:102980002904A5019401C701B6010E949A1B609316
:102990002A0470932B0480932C0490932D048CEEC6
:1029A00091E5A7E1B0E480932E0490932F04A093C7
:1029B0003004B093310420E334E34EE75FE3209327
:1029C000320430933304409334045093350480E050
:1029D00097E5A4E9B6E38093360490933704A09377
:1029E0003804B093390481E090E0A1CC90E080E01D
:1029F0009ECC9BE0E916F10409F096CD0E945E089A
:102A000090E080E00E94280C2091C0013091C1012B
:102A10004091C2015091C3012C833D834E835F835B
:102A200084EF89838EE28A83CE0101960E94F107AA
:102A3000811103C00E9456087AC065E070E080E012
:102A400090E00E94510586EF898362E0CE010196F5
:102A50000E94C108882371F3698170E090E080E0F2
:102A60000E943B1B20E030E040E853E40E949A1BA8
:102A70006B017C016A8170E090E080E00E943B1B6A
:102A80009B01AC01C701B6010E94F61C20910A040B
:102A900030910B0440910C0450910D040E94F51CE0
:102AA00020910604309107044091080450910904D4
:102AB0000E949A1B6B017C01209112043091130437
:102AC00040911404509115040E94F61C9B01AC0126
:102AD00060910E0470910F04809110049091110484
:102AE0000E94621DA70196010E94F61C6B017C01E9
:102AF00041E00E94140B8EEF90E00E94E20184EF0F
:102B000089838A83CE0101960E94F107882379F098
:102B10006AE170E080E090E00E94510586EF8983D1
:102B200063E0CE0101960E94C108811105C00E9498
:102B300056080E945608F8CC20E030E048EC51E4FA
:102B4000C701B6010E94F51C6B017C01AC019B0121
:102B50000E949A1B2B013C01698170E090E080E0AB
:102B60000E943B1B20E030E040E853E40E949A1BA7
:102B70004B015C016A8170E090E080E00E943B1BA9
:102B80009B01AC01C501B4010E94F61C4B015C0124
:102B90006B8170E090E080E00E943B1B20E030E021
:102BA00040E85BE30E949A1B9B01AC01C501B401A4
:102BB0000E94F61C4B015C0120911E0430911F0401
:102BC0004091200450912104C301B2010E949A1B3C
:102BD000688779878A879B8720911A0430911B0424
:102BE00040911C0450911D04C701B6010E949A1B1C
:102BF0009B01AC01688579858A859B850E94F61CBE
:102C00002091160430911704409118045091190432
:102C10000E94F61C9B01AC01C501B4010E94F51C89
:102C20004B015C0120912A0430912B0440912C042B
:102C300050912D04C301B2010E949A1B2B013C014B
:102C400020912604309127044091280450912904B2
:102C5000C701B6010E949A1B9B01AC01C301B201DE
:102C60000E94F61C209122043091230440912404F8
:102C7000509125040E94F61C9B01AC01C501B401D2
:102C80000E94621D6B017C01AC019B010E949A1B9A
:102C90002091360430913704409138045091390422
:102CA0000E949A1B4B015C01209132043091330445
:102CB0004091340450913504C701B6010E949A1B1B
:102CC0009B01AC01C501B4010E94F61C20912E04A9
:102CD00030912F0440913004509131040E94F61C31
:102CE0006B017C0142E00E94140B8EEF90E00E9489
:102CF000E20120E03AE24DE257E46C817D818E8171
:102D00009F810E94621D9B01AC0160E070E080E841
:102D10009FE30E94F51C26EF38E248EA50E40E9447
:102D20000F1E9B01AC01C701B6010E94621D42E06B
:102D30000E94140B8EEF90E0FACA0E3D110509F0C7
:102D4000F3CBE114F10409F080C0E1E0F1E0F12CF3
:102D5000E12C81919191019609F073C06701CC0C2F
:102D6000DD1C86010E0D1F1D015B1B4FD8018C91D0
:102D70008C3008F05CC0B090D20161E08B2D0E94D5
:102D80008A02F8018081282F30E0F901EE0FFF1F41
:102D9000E20FF31FED54FC4F2B2D2F73B22E9081B9
:102DA000907CB92AB082D80111961C921197129684
:102DB0001C922CE0622F0E94991F829FB001112467
:102DC00030E020E0AB01420F531FFA01EE0FFF1F6E
:102DD000E40FF51FED54FC4F908196FD16C02F5F58
:102DE0003F4F2C30310571F781110FC010928000D8
:102DF00082E0809381001092850010928400B19A45
:102E000080916F00826080936F00F601EE0DFF1DD0
:102E1000E15BFB4FE0818E2F90E0FC01EE0FFF1F86
:102E2000E80FF91FED54FC4F808180648083F60128
:102E3000EF5FFE4F8091D2019091D3019183808307
:102E400071CBBFEFEB1AFB0A84CFE1E0EE16F10481
:102E500009F097C02091D2013091D301E1E0F1E077
:102E60000FEF1FEF90E080E041915191241735075B
:102E700009F48C01019685309105B1F70F3F1007D9
:102E800009F450CBA091D401B091D5017801EE0C9A
:102E9000FF1CA03222E0B207E4F5F701E00FF11FBA
:102EA000E15BFB4F81814101881A910887FD939472
:102EB000880C991C880C991C092C000CAA08BB08CA
:102EC000828128E532E0281B310987FD3395220FE6
:102ED000331F220F331F032E000C440B550B2819F0
:102EE00039094A095B09A53BB10514F0A4EBB0E030
:102EF000B7FF02C0B0E0A0E00E94851C24EB30E0E8
:102F000040E050E00E945B1C820E931EA41EB51E82
:102F1000D4010E0D1F1DF801E15BFB4F20812C3009
:102F200008F000CB8181A101481B510987FD539511
:102F3000CA01880F991F880F991FA817B90784F035
:102F40008281E8E5F2E0E81BF10987FDF395CF0106
:102F5000880F991F880F991FA817B9070CF4CD0186
:102F60000297880F991F4FB7F89430E0F901EE0FE0
:102F7000FF1FE20FF31FED54FC4F928381834FBF7D
:102F8000D1CAF2E0EF16F10409F07BC02091D20122
:102F90003091D301A1E0B1E0EFEFFFEF90E080E0EE
:102FA0004D915D912417350709F4FC010196853098
:102FB0009105B1F710E000E0EF3FFE0709F45AC0B9
:102FC000CF01880F991FE80FF91FE15BFB4F82814A
:102FD000B8E5CB2EB2E0DB2EC81AD10887FDD3941A
:102FE000CC0CDD1CCC0CDD1C0D2C000CEE08FF08FD
:102FF00081814101881A910887FD9394880C991C5E
:10300000880C991C092C000CAA08BB0880818F3FF2
:10301000A9F190E0FC01EE0FFF1FE80FF91FED543E
:10302000FC4F8181928173E0880F991F7A95E1F7B7
:10303000B0E0A0E0E4E0B595A79597958795EA956F
:10304000D1F702969C012F5F3F4F032E000C440BDB
:10305000550B281939094A095B09A4EBB0E00E9415
:103060007A1CA7019601281939094A095B090E94AF
:103070005B1C89010E945E08C80159C990E080E08C
:10308000E1CF33E0E316F104B1F54091D201509164
:10309000D301E1E0F1E08FEF9FEF30E020E06191BC
:1030A00071914617570709F4C9012F5F3F4F25302B
:1030B0003105A9F78F3F980709F434CA9C01220F04
:1030C000331F820F931FFC01E15BFB4FE0818E2FCA
:1030D00090E0FC01EE0FFF1FE80FF91FED54FC4FCD
:1030E00080818F7B80832F5F3E4FEFEFFFEFD90111
:1030F000ED93FC9317CAFAE0EF16F10401F5109274
:103100009902109298021092E702109209030E940D
:10311000AC0523EF30E03093C7012093C60144EFA4
:1031200050E05093C5014093C40180E00E943A08EA
:1031300080E10E943A0888E00E943A08F3C95BE007
:10314000E516F10409F071C011E01093E60283E581
:10315000809308031092E7021092090362E387EA62
:1031600093E00E940B080E94EB051093E602109278
:10317000E7021092090366E083E50E94D206F82E6A
:1031800010929902809398020BE314E0C8018B53CC
:1031900094400F5F1F4F20919902F21641F087EA89
:1031A00093E00E94B107D8011D968C93EFCF06974C
:1031B00029F010923B0481E080933C040E94EB05CF
:1031C0008091490490914A049093CD018093CC0161
:1031D00080914B0490914C049093CB018093CA0151
:1031E00080914D0490914E049093C9018093C80141
:1031F0000E945E088091CC019091CD010E940A0B43
:103200008EEF90E00E94E2018091CA019091CB0183
:103210000E940A0B8EEF90E00E94E2018091C801AB
:103220009091C9010E940A0B7FC9B4E1EB16F10429
:1032300039F46091D4018091D2010E94E90974C9E6
:10324000E5E1EE16F104B1F48091D201E091D401F0
:10325000E43008F0E3E09091EB03E91710F0EFEFB2
:10326000E90FF0E0E852FC4F9489890F80680E94D2
:10327000E3095AC9F6E1EF16F10479F50DB71EB767
:10328000A2EDB1E0FD0190E080E0219131912F3F6E
:10329000310511F00196F9CF2DB73EB7281B390B38
:1032A0000FB6F8943EBF0FBE2DBF6DB77EB76F5FF0
:1032B0007F4FFB01860F971FE817F90721F02C912C
:1032C00012962193F9CF88ED93E00E94940A0FB6ED
:1032D000F8941EBF0FBE0DBF27C937E1E316F104F6
:1032E00009F022C981E00E94E3098BE39FE1019785
:1032F000F1F71AC980915B0490915C04009711F07A
:103300000C9447200895662777270C94C3191F93C0
:10331000FC0199278827BC01E89411911032E9F348
:10332000193010F01E30C8F31B3251F01D3249F431
:10333000689406C00E94AE19610F711D811D911D18
:10334000119110531A30B0F33EF49095809570951A
:1033500061957F4F8F4F9F4F1F910895592F482F91
:10336000372F262F660F771F881F991F660F771F2D
:10337000881F991F620F731F841F951F660F771F89
:10338000881F991F0895B0E0A0E0E9ECF9E10C94E2
:10339000931C5C017B016115710519F0DB018D93B4
:1033A0009C9385010F5F1F4FF501D0818D2F90E019
:1033B0000E94131B6C01892BB9F5DD32B9F50F5F43
:1033C0001F4FD5011196DC91C1E05801F1E0AF1A11
:1033D000B10843E050E062EF70E0C5010E941C1BA1
:1033E000892B69F5680182E0C80ED11C45E050E0E8
:1033F0006DEE70E0C6010E941C1B892B21F4680150
:1034000097E0C90ED11CE114F10419F0D701CD9257
:10341000DC9260E070E080E89FEFC111FFC060E0E7
:1034200070E080E89FE7FAC05801BBCFDB3229F497
:1034300085010E5F1F4FF501D181C0E0C6CF43E08B
:1034400050E06AEE70E0C5010E941C1B892BE9F078
:10345000F80110E000E020E030E0A9015F01B0EDEC
:103460008B2E8D0E89E08815C8F19C2E689491F8FA
:103470008C2F8870C2FF16C0811102C00F5F1F4FD2
:103480003196D501DC91C92DE9CFE114F10429F081
:103490000E5F1F4FF7011183008360E070E080EC46
:1034A0009FE7BCC0882311F001501109A5E0B0E0EE
:1034B0000E947A1C9B01AC01220F331F441F551F31
:1034C000280D311D411D511D283999E9390749073A
:1034D00099E15907A8F2C6609C2ED2CFAEEF8A12AE
:1034E00006C0C3FD3CC09C2E689493F8C9CFDF7D15
:1034F000D534A9F580818D3239F4C061DF0112968F
:10350000818162E070E006C0DF018B32C1F3119669
:1035100061E070E080535D01A61AB70A8A30F8F4C2
:10352000E0E8CE16ECE0DE065CF4B601660F771F2D
:10353000660F771FC60ED71ECC0CDD1CC80ED11C23
:103540005D01FFEFAF1ABF0A8C9180538A30A8F15A
:10355000C4FF03C0D194C194D1080C0D1D1DC1FF3F
:1035600009C0E114F10431F081E0A81AB108D701D3
:10357000AD92BC92CA01B9010E94391BC370C3301D
:1035800009F490584B015C0120E030E0A9010E9451
:10359000341B882309F440C0C1E2D1E017FF05C005
:1035A000119501951109C9E0D1E06E01B8E1CB1A7E
:1035B000D10880E2E82EF12C0FC0D501B1CFFE0179
:1035C00025913591459154910E191F09C501B401FA
:1035D0000E949A1B4B015C01D501C4010E151F0509
:1035E00074F72497F594E794CC16DD06A9F78A2F93
:1035F000880F8B2F881F8F3F49F020E030E0A90112
:10360000C501B4010E94341B811106C082E290E022
:103610009093620480936104C501B401CDB7DEB715
:10362000ECE00C94AF1C91110C94071C803219F043
:1036300089508550C8F70895FB01DC014150504086
:1036400088F08D9181341CF08B350CF4805E65918F
:1036500061341CF06B350CF4605E861B611171F3F4
:10366000990B0895881BFCCF0E94761B08F481E01B
:103670000895E89409C097FB3EF490958095709565
:1036800061957F4F8F4F9F4F9923A9F0F92F96E9AE
:10369000BB279395F695879577956795B795F11123
:1036A000F8CFFAF4BB0F11F460FF1BC06F5F7F4FC0
:1036B0008F4F9F4F16C0882311F096E911C07723D2
:1036C00021F09EE8872F762F05C0662371F096E8DB
:1036D000862F70E060E02AF09A95660F771F881FAA
:1036E000DAF7880F9695879597F90895990F00084E
:1036F000550FAA0BE0E8FEEF16161706E807F907C4
:10370000C0F012161306E407F50798F0621B730B5E
:10371000840B950B39F40A2661F0232B242B252BDF
:1037200021F408950A2609F4A140A6958FEF811D82
:10373000811D08950E94AD1B0C94211C0E94131C36
:1037400038F00E941A1C20F0952311F00C940A1CEA
:103750000C94101C11240C94551C0E94321C70F304
:10376000959FC1F3950F50E0551F629FF001729F26
:10377000BB27F00DB11D639FAA27F00DB11DAA1F35
:10378000649F6627B00DA11D661F829F2227B00D82
:10379000A11D621F739FB00DA11D621F839FA00D0D
:1037A000611D221F749F3327A00D611D231F849F5D
:1037B000600D211D822F762F6A2F11249F575040B4
:1037C0009AF0F1F088234AF0EE0FFF1FBB1F661F2F
:1037D000771F881F91505040A9F79E3F510580F0F8
:1037E0000C940A1C0C94551C5F3FE4F3983ED4F3F0
:1037F000869577956795B795F795E7959F5FC1F79C
:10380000FE2B880F911D9695879597F90895992716
:103810008827089597F99F6780E870E060E0089531
:103820009FEF80EC089500240A94161617061806D8
:103830000906089500240A941216130614060506B4
:103840000895092E0394000C11F4882352F0BB0F45
:1038500040F4BF2B11F460FF04C06F5F7F4F8F4FA8
:103860009F4F089557FD9058440F551F59F05F3FE3
:1038700071F04795880F97FB991F61F09F3F79F092
:1038800087950895121613061406551FF2CF469514
:10389000F1DF08C0161617061806991FF1CF869596
:1038A0007105610508940895E894BB27662777277A
:1038B000CB0197F90895052E97FB1EF400940E9402
:1038C000721C57FD07D00E94C41C07FC03D04EF4A5
:1038D0000C94721C50954095309521953F4F4F4F59
:1038E0005F4F089590958095709561957F4F8F4FAC
:1038F0009F4F08950E94E61CA59F900DB49F900DC8
:10390000A49F800D911D11240895B7FF0C947A1C7B
:103910000E947A1C821B930B08952F923F924F9224
:103920005F926F927F928F929F92AF92BF92CF924F
:10393000DF92EF92FF920F931F93CF93DF93CDB758
:10394000DEB7CA1BDB0B0FB6F894DEBF0FBECDBFD0
:1039500009942A88398848885F846E847D848C84A1
:103960009B84AA84B984C884DF80EE80FD800C81AA
:103970001B81AA81B981CE0FD11D0FB6F894DEBF8D
:103980000FBECDBFED010895A1E21A2EAA1BBB1BED
:10399000FD010DC0AA1FBB1FEE1FFF1FA217B3071B
:1039A000E407F50720F0A21BB30BE40BF50B661F31
:1039B000771F881F991F1A9469F7609570958095F5
:1039C00090959B01AC01BD01CF010895A29FB0016C
:1039D000B39FC001A39F700D811D1124911DB29F43
:1039E000700D811D1124911D08955058BB27AA27E1
:1039F0000E940D1D0C94211C0E94131C38F00E9483
:103A00001A1C20F039F49F3F19F426F40C94101C72
:103A10000EF4E095E7FB0C940A1CE92F0E94321C7F
:103A200058F3BA17620773078407950720F079F4F3
:103A3000A6F50C94541C0EF4E0950B2EBA2FA02D75
:103A40000B01B90190010C01CA01A0011124FF274B
:103A5000591B99F0593F50F4503E68F11A16F04046
:103A6000A22F232F342F4427585FF3CF4695379545
:103A70002795A795F0405395C9F77EF41F16BA0B0A
:103A8000620B730B840BBAF09150A1F0FF0FBB1FB8
:103A9000661F771F881FC2F70EC0BA0F621F731F01
:103AA000841F48F4879577956795B795F7959E3F5E
:103AB00008F0B0CF9395880F08F09927EE0F9795EF
:103AC000879508950E94761D0C94211C0E941A1C53
:103AD00058F00E94131C40F029F45F3F29F00C9429
:103AE0000A1C51110C94551C0C94101C0E94321C81
:103AF00068F39923B1F3552391F3951B550BBB271D
:103B0000AA2762177307840738F09F5F5F4F220F61
:103B1000331F441FAA1FA9F335D00E2E3AF0E0E858
:103B200032D091505040E695001CCAF72BD0FE2FA2
:103B300029D0660F771F881FBB1F26173707480736
:103B4000AB07B0E809F0BB0B802DBF01FF279358EE
:103B50005F4F3AF09E3F510578F00C940A1C0C948C
:103B6000551C5F3FE4F3983ED4F3869577956795AF
:103B7000B795F7959F5FC9F7880F911D9695879523
:103B800097F90895E1E0660F771F881FBB1F621742
:103B900073078407BA0720F0621B730B840BBA0B00
:103BA000EE1F88F7E09508950E94DB1D6894B1111F
:103BB0000C94551C08950E943A1C88F09F5798F069
:103BC000B92F9927B751B0F0E1F0660F771F881F22
:103BD000991F1AF0BA95C9F714C0B13091F00E943C
:103BE000541CB1E008950C94541C672F782F88273B
:103BF000B85F39F0B93FCCF3869577956795B39563
:103C0000D9F73EF490958095709561957F4F8F4FD1
:103C10009F4F08950E94761B08F48FEF0895FA01D4
:103C2000EE0FFF1F309621053105A1F161157105D9
:103C300061F48038BFE39B0749F1689490388105AF
:103C400061F08038BFEF9B0741F099234AF5FF3FB1
:103C5000E1053105210519F1E8940894E795D901AA
:103C6000AA2329F4AB2FBE2FF85FD0F310C0FF5F5B
:103C700070F4A695E0F7F73950F019F0FF3A38F4F0
:103C80009F779F930DD00F9007FC9058089546F0B2
:103C90000C94101C60E070E080E89FE308954FE70B
:103CA0009F775F934F933F932F930E940F1F2F9106
:103CB0003F914F915F910E949A1B0C946C1E0E9441
:103CC000761B880B990B089529F416F00C940A1CA6
:103CD0000C94541C0C94101C0E943A1CA8F39638A7
:103CE000A0F707F80F92E8942BE33AEA48EB5FE776
:103CF0000E94B01B0F920F920F924DB75EB70F92BA
:103D00000E94571FE8E6F0E00E949E1E4F915F91CF
:103D1000EF91FF91E595EE1FFF1F49F0FE57E06818
:103D20004427EE0F441FFA95E1F74195550B0E9489
:103D3000D11E0F9007FE0C94C51E0895DF93CF93FC
:103D40001F930F93FF92EF92DF927B018C01689497
:103D500006C0DA2EEF010E94AD1BFE01E894A5918A
:103D60002591359145915591A6F3EF010E940D1DC6
:103D7000FE019701A801DA9469F7DF90EF90FF90B8
:103D80000F911F91CF91DF9108959B01AC0160E0ED
:103D900070E080E89FE30C94621D0C940A1C0C9464
:103DA0008B1F0E943A1CD8F39923C9F3940F511D1D
:103DB000A3F39150504094F059F0882332F0660FED
:103DC000771F881F91505040C1F79E3F51052CF737
:103DD000880F911D9695879597F908955F3FACF0F0
:103DE000983E9CF0BB27869577956795B79508F424
:103DF000B1609395C1F7BB0F58F711F460FFE8CF9E
:103E00006F5F7F4F8F4F9F4FE3CF0C94551C16F081
:103E10000C948B1F0C94101C68940C940A1C0E9428
:103E20003A1CA8F39923C1F3AEF3DF93CF931F930A
:103E30000F93FF92C92FDD2788232AF02197660F61
:103E4000771F881FDAF720E030E040E85FEB9FE360
:103E5000883920F0803E38F021968F770E94F61C3A
:103E6000E0E9F0E004C00E94F61CEDEBF0E00E94F7
:103E70009E1E8B01BE01EC01FB2E6F5771097595DB
:103E8000771F880B990B0E943B1B28E132E741E327
:103E90005FE30E94AD1BAF2D9801AE01FF900F9123
:103EA0001F91CF91DF910E940D1D0C94211CFA01EE
:103EB000DC01AA0FBB1F9B01AC01BF5728F42227CE
:103EC00033274427507820C0B75190F4AB2F0024FB
:103ED000469537952795011CA395D2F3002071F0E4
:103EE000220F331F441FB395DAF30ED00C94F51C48
:103EF00061307105A0E88A07B94630F49B01AC0136
:103F00006627772788279078309621F020833183A1
:103F10004283538308959F3F31F0915020F4879559
:103F200077956795B795880F911D9695879597F921
:103F30000895991B79E004C0991F961708F0961B05
:103F4000881F7A95C9F780950895EE0FFF1F059099
:103F5000F491E02D09940F931F93CF93DF93823058
:103F6000910510F482E090E0E0916504F091660420
:103F700030E020E0B0E0A0E0309799F42115310561
:103F800009F44AC0281B390B24303105D8F58A8141
:103F90009B816115710589F1FB0193838283FE0189
:103FA00011C0408151810281138148175907E0F007
:103FB0004817590799F4109761F012960C931297CD
:103FC00013961C933296CF01DF91CF911F910F91E1
:103FD00008950093650410936604F4CF211531050C
:103FE00051F04217530738F0A901DB019A01BD01D6
:103FF000DF01F801C1CFEF01F9CF90936604809300
:104000006504CDCFFE01E20FF31F819391932250FF
:10401000310939832883D7CF209163043091640418
:10402000232B41F420910B0130910C013093640457
:10403000209363042091090130910A012115310573
:1040400041F42DB73EB740910D0150910E01241B54
:10405000350BE0916304F0916404E217F307A0F4D8
:104060002E1B3F0B2817390778F0AC014E5F5F4FCE
:104070002417350748F04E0F5F1F50936404409398
:104080006304819391939FCFF0E0E0E09CCFCF93C6
:10409000DF930097E9F0FC01329713821282A0911E
:1040A0006504B0916604ED0130E020E01097A1F4C2
:1040B00020813181820F931F209163043091640429
:1040C0002817390709F061C0F0936404E093630492
:1040D000DF91CF910895EA01CE17DF07E8F54A8115
:1040E0005B819E0141155105B1F7E901FB83EA832C
:1040F00049915991C40FD51FEC17FD0761F48081D8
:1041000091810296840F951FE901998388838281AA
:1041100093819B838A83F0E0E0E012968D919C91DD
:1041200013970097B9F52D913C911197CD01029607
:10413000820F931F2091630430916404281739077C
:1041400039F6309751F51092660410926504B093D9
:104150006404A0936304BCCFD383C28340815181A4
:10416000840F951FC817D90761F44E5F5F4F888190
:104170009981480F591F518340838A819B81938382
:1041800082832115310509F0B0CFF0936604E093E6
:1041900065049ECFFD01DC01C0CF13821282D7CF10
:1041A000B0E0A0E0E6EDF0E20C948F1C8C010097EB
:1041B00051F4CB010E94AB1F8C01C801CDB7DEB713
:1041C000E0E10C94AB1CFC01E60FF71F9C012250B0
:1041D0003109E217F30708F49DC0D901CD91DC91B4
:1041E0001197C617D70798F0C530D10530F3CE0127
:1041F00004978617970708F3C61BD70B2297C1931E
:10420000D1936D937C93CF010E944720D6CF5B0161
:10421000AC1ABD0A4C018C0E9D1EA0916504B09194
:104220006604512C412CF12CE12C109731F5809132
:104230006304909164048815990509F05CC04616E2
:10424000570608F058C08091090190910A01009723
:1042500041F48DB79EB740910D0150910E01841B22
:10426000950BE817F90708F055C0F0936404E09344
:104270006304F90171836083A0CF8D919C911197A4
:1042800012966C90129713967C901397A815B90507
:1042900059F56C0142E0C40ED11CCA14DB0420F1B4
:1042A000AC014A195B09DA011296159780F0628217
:1042B000738251834083D9016D937C93E114F1049F
:1042C00071F0D7011396FC93EE93129776CF229656
:1042D0008C0F9D1FF90191838083F301EFCFF09341
:1042E0006604E093650469CF4816590608F42C016A
:1042F0007D01D3019ACFCB010E94AB1F7C010097B7
:1043000049F0AE01B8010E948D21C8010E944720EA
:10431000870153CF10E000E050CFFB01DC0102C069
:1043200001900D9241505040D8F70895FB01DC01F7
:1043300001900D920020E1F7089510E0C1ECD0E06B
:1043400004C0FE010E94A51F2196C23CD107C9F7F7
:04435000F894FFCF0F
:10435400FFFFFFFFFFFFFFFFFF0000670480000077
:104364000000009501F5002201E7015301310145E8
:1043740001000000000B08C4075308A107EC00B1BA
:1043840007A207000000008E0AF500530884056E9A
:10439400616E00696E66006F766600302E303030D4
:0C43A400303030303030303030303000FD
:00000001FF
